{
  "contractName": "CryptoUnion",
  "abi": [
    {
      "anonymous": false,
      "inputs": [
        {
          "indexed": false,
          "internalType": "string",
          "name": "countryCode",
          "type": "string"
        },
        {
          "indexed": false,
          "internalType": "address",
          "name": "oldWallet",
          "type": "address"
        },
        {
          "indexed": false,
          "internalType": "address",
          "name": "newWallet",
          "type": "address"
        }
      ],
      "name": "LogCountryAddressUpdated",
      "type": "event"
    },
    {
      "anonymous": false,
      "inputs": [
        {
          "indexed": false,
          "internalType": "uint256",
          "name": "transferId",
          "type": "uint256"
        },
        {
          "indexed": false,
          "internalType": "address",
          "name": "from",
          "type": "address"
        },
        {
          "indexed": false,
          "internalType": "string",
          "name": "to",
          "type": "string"
        },
        {
          "indexed": false,
          "internalType": "uint256",
          "name": "amount",
          "type": "uint256"
        }
      ],
      "name": "LogTransferFailed",
      "type": "event"
    },
    {
      "anonymous": false,
      "inputs": [
        {
          "indexed": false,
          "internalType": "uint256",
          "name": "transferId",
          "type": "uint256"
        },
        {
          "indexed": false,
          "internalType": "address",
          "name": "from",
          "type": "address"
        },
        {
          "indexed": false,
          "internalType": "string",
          "name": "to",
          "type": "string"
        },
        {
          "indexed": false,
          "internalType": "uint256",
          "name": "amount",
          "type": "uint256"
        },
        {
          "indexed": false,
          "internalType": "enum CryptoUnion.Status",
          "name": "status",
          "type": "uint8"
        },
        {
          "indexed": false,
          "internalType": "uint256",
          "name": "contractFee",
          "type": "uint256"
        }
      ],
      "name": "LogTransferSent",
      "type": "event"
    },
    {
      "anonymous": false,
      "inputs": [
        {
          "indexed": true,
          "internalType": "address",
          "name": "previousOwner",
          "type": "address"
        },
        {
          "indexed": true,
          "internalType": "address",
          "name": "newOwner",
          "type": "address"
        }
      ],
      "name": "OwnershipTransferred",
      "type": "event"
    },
    {
      "inputs": [
        {
          "internalType": "string",
          "name": "",
          "type": "string"
        }
      ],
      "name": "addresses",
      "outputs": [
        {
          "internalType": "address",
          "name": "",
          "type": "address"
        }
      ],
      "stateMutability": "view",
      "type": "function",
      "constant": true
    },
    {
      "inputs": [],
      "name": "minValue",
      "outputs": [
        {
          "internalType": "uint256",
          "name": "",
          "type": "uint256"
        }
      ],
      "stateMutability": "view",
      "type": "function",
      "constant": true
    },
    {
      "inputs": [],
      "name": "owner",
      "outputs": [
        {
          "internalType": "address",
          "name": "",
          "type": "address"
        }
      ],
      "stateMutability": "view",
      "type": "function",
      "constant": true
    },
    {
      "inputs": [
        {
          "internalType": "address",
          "name": "",
          "type": "address"
        }
      ],
      "name": "pendingTransfers",
      "outputs": [
        {
          "internalType": "uint256",
          "name": "",
          "type": "uint256"
        }
      ],
      "stateMutability": "view",
      "type": "function",
      "constant": true
    },
    {
      "inputs": [],
      "name": "renounceOwnership",
      "outputs": [],
      "stateMutability": "nonpayable",
      "type": "function"
    },
    {
      "inputs": [],
      "name": "transferCount",
      "outputs": [
        {
          "internalType": "uint256",
          "name": "",
          "type": "uint256"
        }
      ],
      "stateMutability": "view",
      "type": "function",
      "constant": true
    },
    {
      "inputs": [
        {
          "internalType": "address",
          "name": "newOwner",
          "type": "address"
        }
      ],
      "name": "transferOwnership",
      "outputs": [],
      "stateMutability": "nonpayable",
      "type": "function"
    },
    {
      "inputs": [
        {
          "internalType": "uint256",
          "name": "",
          "type": "uint256"
        }
      ],
      "name": "transfers",
      "outputs": [
        {
          "internalType": "uint256",
          "name": "transferId",
          "type": "uint256"
        },
        {
          "internalType": "address payable",
          "name": "from",
          "type": "address"
        },
        {
          "internalType": "string",
          "name": "to",
          "type": "string"
        },
        {
          "internalType": "enum CryptoUnion.Status",
          "name": "status",
          "type": "uint8"
        },
        {
          "internalType": "uint256",
          "name": "amount",
          "type": "uint256"
        }
      ],
      "stateMutability": "view",
      "type": "function",
      "constant": true
    },
    {
      "inputs": [],
      "name": "adminSignIn",
      "outputs": [
        {
          "internalType": "bool",
          "name": "",
          "type": "bool"
        }
      ],
      "stateMutability": "view",
      "type": "function",
      "constant": true
    },
    {
      "inputs": [
        {
          "internalType": "string",
          "name": "countryCode",
          "type": "string"
        },
        {
          "internalType": "address",
          "name": "wallet",
          "type": "address"
        }
      ],
      "name": "setAddress",
      "outputs": [],
      "stateMutability": "nonpayable",
      "type": "function"
    },
    {
      "inputs": [
        {
          "internalType": "string",
          "name": "countryCode",
          "type": "string"
        }
      ],
      "name": "getAddress",
      "outputs": [
        {
          "internalType": "address",
          "name": "",
          "type": "address"
        }
      ],
      "stateMutability": "view",
      "type": "function",
      "constant": true
    },
    {
      "inputs": [],
      "name": "getMinValue",
      "outputs": [
        {
          "internalType": "uint256",
          "name": "",
          "type": "uint256"
        }
      ],
      "stateMutability": "view",
      "type": "function",
      "constant": true
    },
    {
      "inputs": [],
      "name": "getTransferCount",
      "outputs": [
        {
          "internalType": "uint256",
          "name": "",
          "type": "uint256"
        }
      ],
      "stateMutability": "view",
      "type": "function",
      "constant": true
    },
    {
      "inputs": [
        {
          "internalType": "string",
          "name": "countryCode",
          "type": "string"
        }
      ],
      "name": "sendEthToCountry",
      "outputs": [],
      "stateMutability": "payable",
      "type": "function",
      "payable": true
    },
    {
      "inputs": [
        {
          "internalType": "uint256",
          "name": "_transferId",
          "type": "uint256"
        }
      ],
      "name": "getTransfer",
      "outputs": [
        {
          "internalType": "uint256",
          "name": "",
          "type": "uint256"
        },
        {
          "internalType": "address",
          "name": "",
          "type": "address"
        },
        {
          "internalType": "string",
          "name": "",
          "type": "string"
        },
        {
          "internalType": "enum CryptoUnion.Status",
          "name": "",
          "type": "uint8"
        },
        {
          "internalType": "uint256",
          "name": "",
          "type": "uint256"
        },
        {
          "internalType": "uint256",
          "name": "",
          "type": "uint256"
        }
      ],
      "stateMutability": "view",
      "type": "function",
      "constant": true
    },
    {
      "inputs": [
        {
          "internalType": "uint256",
          "name": "_transferId",
          "type": "uint256"
        }
      ],
      "name": "confirmTransfer",
      "outputs": [],
      "stateMutability": "nonpayable",
      "type": "function"
    }
  ],
  "bytecode": "0x60806040526000600155660aa87bee53800060025534801561002057600080fd5b5061003d61003261004260201b60201c565b61004a60201b60201c565b61010e565b600033905090565b60008060009054906101000a900473ffffffffffffffffffffffffffffffffffffffff169050816000806101000a81548173ffffffffffffffffffffffffffffffffffffffff021916908373ffffffffffffffffffffffffffffffffffffffff1602179055508173ffffffffffffffffffffffffffffffffffffffff168173ffffffffffffffffffffffffffffffffffffffff167f8be0079c531659141344cd1fd0a4f28419497f9722a3daafe3b4186f6b6457e060405160405180910390a35050565b6121c2806200011e6000396000f3fe6080604052600436106100f35760003560e01c8063963e63c71161008a578063bf40fac111610059578063bf40fac11461030f578063c16fe9071461034c578063e3d33fc91461038e578063f2fde38b146103b9576100f3565b8063963e63c7146102415780639b2ea4bd1461026c578063bdfe7d4714610295578063be22dd65146102d2576100f3565b80634cee308a116100c65780634cee308a146101a2578063715018a6146101be5780638da5cb5b146101d55780639377d71114610200576100f3565b8063040e55f5146100f85780631cce57aa146101235780632c48e7db1461014e5780634b30a6a114610177575b600080fd5b34801561010457600080fd5b5061010d6103e2565b60405161011a9190611cc7565b60405180910390f35b34801561012f57600080fd5b506101386103ec565b6040516101459190611b4e565b60405180910390f35b34801561015a57600080fd5b50610175600480360381019061017091906116ed565b610429565b005b34801561018357600080fd5b5061018c61073d565b6040516101999190611cc7565b60405180910390f35b6101bc60048036038101906101b79190611658565b610747565b005b3480156101ca57600080fd5b506101d3610c34565b005b3480156101e157600080fd5b506101ea610cbc565b6040516101f79190611b33565b60405180910390f35b34801561020c57600080fd5b50610227600480360381019061022291906116ed565b610ce5565b604051610238959493929190611ce2565b60405180910390f35b34801561024d57600080fd5b50610256610dd0565b6040516102639190611cc7565b60405180910390f35b34801561027857600080fd5b50610293600480360381019061028e9190611699565b610dd6565b005b3480156102a157600080fd5b506102bc60048036038101906102b79190611658565b611040565b6040516102c99190611b33565b60405180910390f35b3480156102de57600080fd5b506102f960048036038101906102f4919061162f565b611089565b6040516103069190611cc7565b60405180910390f35b34801561031b57600080fd5b5061033660048036038101906103319190611658565b6110a1565b6040516103439190611b33565b60405180910390f35b34801561035857600080fd5b50610373600480360381019061036e91906116ed565b611135565b60405161038596959493929190611d3c565b60405180910390f35b34801561039a57600080fd5b506103a3611330565b6040516103b09190611cc7565b60405180910390f35b3480156103c557600080fd5b506103e060048036038101906103db919061162f565b611336565b005b6000600154905090565b60006103f6610cbc565b73ffffffffffffffffffffffffffffffffffffffff163373ffffffffffffffffffffffffffffffffffffffff1614905090565b61043161142e565b73ffffffffffffffffffffffffffffffffffffffff1661044f610cbc565b73ffffffffffffffffffffffffffffffffffffffff16146104a5576040517f08c379a000000000000000000000000000000000000000000000000000000000815260040161049c90611c27565b60405180910390fd5b8060006005600083815260200190815260200160002060010160009054906101000a900473ffffffffffffffffffffffffffffffffffffffff169050600073ffffffffffffffffffffffffffffffffffffffff168173ffffffffffffffffffffffffffffffffffffffff161415610551576040517f08c379a000000000000000000000000000000000000000000000000000000000815260040161054890611c07565b60405180910390fd5b6005600084815260200190815260200160002060030160009054906101000a900460ff16600060018111156105af577f4e487b7100000000000000000000000000000000000000000000000000000000600052602160045260246000fd5b8160018111156105e8577f4e487b7100000000000000000000000000000000000000000000000000000000600052602160045260246000fd5b14610628576040517f08c379a000000000000000000000000000000000000000000000000000000000815260040161061f90611c87565b60405180910390fd5b60016005600086815260200190815260200160002060030160006101000a81548160ff02191690836001811115610688577f4e487b7100000000000000000000000000000000000000000000000000000000600052602160045260246000fd5b02179055506001600460006003600560008981526020019081526020016000206002016040516106b89190611b07565b908152602001604051809103902060009054906101000a900473ffffffffffffffffffffffffffffffffffffffff1673ffffffffffffffffffffffffffffffffffffffff1673ffffffffffffffffffffffffffffffffffffffff16815260200190815260200160002060008282546107309190611f56565b9250508190555050505050565b6000600254905090565b60025434101561078c576040517f08c379a000000000000000000000000000000000000000000000000000000000815260040161078390611c67565b60405180910390fd5b80600081905060038151146107d6576040517f08c379a00000000000000000000000000000000000000000000000000000000081526004016107cd90611c47565b60405180910390fd5b600073ffffffffffffffffffffffffffffffffffffffff166003846040516107fe9190611af0565b908152602001604051809103902060009054906101000a900473ffffffffffffffffffffffffffffffffffffffff1673ffffffffffffffffffffffffffffffffffffffff161415610884576040517f08c379a000000000000000000000000000000000000000000000000000000000815260040161087b90611ba7565b60405180910390fd5b6000600254346108949190611f56565b90506040518060a0016040528060015481526020013373ffffffffffffffffffffffffffffffffffffffff16815260200185815260200160006001811115610905577f4e487b7100000000000000000000000000000000000000000000000000000000600052602160045260246000fd5b8152602001828152506005600060015481526020019081526020016000206000820151816000015560208201518160010160006101000a81548173ffffffffffffffffffffffffffffffffffffffff021916908373ffffffffffffffffffffffffffffffffffffffff16021790555060408201518160020190805190602001906109909291906114fa565b5060608201518160030160006101000a81548160ff021916908360018111156109e2577f4e487b7100000000000000000000000000000000000000000000000000000000600052602160045260246000fd5b021790555060808201518160040155905050600160046000600387604051610a0a9190611af0565b908152602001604051809103902060009054906101000a900473ffffffffffffffffffffffffffffffffffffffff1673ffffffffffffffffffffffffffffffffffffffff1673ffffffffffffffffffffffffffffffffffffffff1681526020019081526020016000206000828254610a829190611f00565b925050819055506001806000828254610a9b9190611f00565b925050819055506000600385604051610ab49190611af0565b908152602001604051809103902060009054906101000a900473ffffffffffffffffffffffffffffffffffffffff1673ffffffffffffffffffffffffffffffffffffffff1682604051610b0690611b1e565b60006040518083038185875af1925050503d8060008114610b43576040519150601f19603f3d011682016040523d82523d6000602084013e610b48565b606091505b5050905080610b9c577f8677b57b8bb2cc7ee300f9aebe042b891a119b9949d3974d15f1f72b4fb3744d60018054610b809190611f56565b338785604051610b939493929190611da4565b60405180910390a15b80610bdc576040517f08c379a0000000000000000000000000000000000000000000000000000000008152600401610bd390611be7565b60405180910390fd5b7f6c7e0a6ecda086f3db70bd1293b039eb3aca113808ff54c4001d52546e1c96cb60018054610c0b9190611f56565b3387856000600254604051610c2596959493929190611df0565b60405180910390a15050505050565b610c3c61142e565b73ffffffffffffffffffffffffffffffffffffffff16610c5a610cbc565b73ffffffffffffffffffffffffffffffffffffffff1614610cb0576040517f08c379a0000000000000000000000000000000000000000000000000000000008152600401610ca790611c27565b60405180910390fd5b610cba6000611436565b565b60008060009054906101000a900473ffffffffffffffffffffffffffffffffffffffff16905090565b60056020528060005260406000206000915090508060000154908060010160009054906101000a900473ffffffffffffffffffffffffffffffffffffffff1690806002018054610d349061204b565b80601f0160208091040260200160405190810160405280929190818152602001828054610d609061204b565b8015610dad5780601f10610d8257610100808354040283529160200191610dad565b820191906000526020600020905b815481529060010190602001808311610d9057829003601f168201915b5050505050908060030160009054906101000a900460ff16908060040154905085565b60025481565b610dde61142e565b73ffffffffffffffffffffffffffffffffffffffff16610dfc610cbc565b73ffffffffffffffffffffffffffffffffffffffff1614610e52576040517f08c379a0000000000000000000000000000000000000000000000000000000008152600401610e4990611c27565b60405180910390fd5b8160008190506003815114610e9c576040517f08c379a0000000000000000000000000000000000000000000000000000000008152600401610e9390611c47565b60405180910390fd5b83600060046000600384604051610eb39190611af0565b908152602001604051809103902060009054906101000a900473ffffffffffffffffffffffffffffffffffffffff1673ffffffffffffffffffffffffffffffffffffffff1673ffffffffffffffffffffffffffffffffffffffff1681526020019081526020016000205414610f5d576040517f08c379a0000000000000000000000000000000000000000000000000000000008152600401610f5490611ca7565b60405180910390fd5b6000600386604051610f6f9190611af0565b908152602001604051809103902060009054906101000a900473ffffffffffffffffffffffffffffffffffffffff16905084600387604051610fb19190611af0565b908152602001604051809103902060006101000a81548173ffffffffffffffffffffffffffffffffffffffff021916908373ffffffffffffffffffffffffffffffffffffffff1602179055507f0f15edfba3e3ed3e9cbe4671b9e294e309914a0165e592062c5e456b83baa69586828760405161103093929190611b69565b60405180910390a1505050505050565b6003818051602081018201805184825260208301602085012081835280955050505050506000915054906101000a900473ffffffffffffffffffffffffffffffffffffffff1681565b60046020528060005260406000206000915090505481565b600081600081905060038151146110ed576040517f08c379a00000000000000000000000000000000000000000000000000000000081526004016110e490611c47565b60405180910390fd5b6003846040516110fd9190611af0565b908152602001604051809103902060009054906101000a900473ffffffffffffffffffffffffffffffffffffffff1692505050919050565b600080606060008060008660006005600083815260200190815260200160002060010160009054906101000a900473ffffffffffffffffffffffffffffffffffffffff169050600073ffffffffffffffffffffffffffffffffffffffff168173ffffffffffffffffffffffffffffffffffffffff1614156111eb576040517f08c379a00000000000000000000000000000000000000000000000000000000081526004016111e290611c07565b60405180910390fd5b600560008a815260200190815260200160002060000154600560008b815260200190815260200160002060010160009054906101000a900473ffffffffffffffffffffffffffffffffffffffff16600560008c8152602001908152602001600020600201600560008d815260200190815260200160002060030160009054906101000a900460ff16600560008e8152602001908152602001600020600401546002548380546112999061204b565b80601f01602080910402602001604051908101604052809291908181526020018280546112c59061204b565b80156113125780601f106112e757610100808354040283529160200191611312565b820191906000526020600020905b8154815290600101906020018083116112f557829003601f168201915b50505050509350975097509750975097509750505091939550919395565b60015481565b61133e61142e565b73ffffffffffffffffffffffffffffffffffffffff1661135c610cbc565b73ffffffffffffffffffffffffffffffffffffffff16146113b2576040517f08c379a00000000000000000000000000000000000000000000000000000000081526004016113a990611c27565b60405180910390fd5b600073ffffffffffffffffffffffffffffffffffffffff168173ffffffffffffffffffffffffffffffffffffffff161415611422576040517f08c379a000000000000000000000000000000000000000000000000000000000815260040161141990611bc7565b60405180910390fd5b61142b81611436565b50565b600033905090565b60008060009054906101000a900473ffffffffffffffffffffffffffffffffffffffff169050816000806101000a81548173ffffffffffffffffffffffffffffffffffffffff021916908373ffffffffffffffffffffffffffffffffffffffff1602179055508173ffffffffffffffffffffffffffffffffffffffff168173ffffffffffffffffffffffffffffffffffffffff167f8be0079c531659141344cd1fd0a4f28419497f9722a3daafe3b4186f6b6457e060405160405180910390a35050565b8280546115069061204b565b90600052602060002090601f016020900481019282611528576000855561156f565b82601f1061154157805160ff191683800117855561156f565b8280016001018555821561156f579182015b8281111561156e578251825591602001919060010190611553565b5b50905061157c9190611580565b5090565b5b80821115611599576000816000905550600101611581565b5090565b60006115b06115ab84611e89565b611e58565b9050828152602081018484840111156115c857600080fd5b6115d3848285612009565b509392505050565b6000813590506115ea8161215e565b92915050565b600082601f83011261160157600080fd5b813561161184826020860161159d565b91505092915050565b60008135905061162981612175565b92915050565b60006020828403121561164157600080fd5b600061164f848285016115db565b91505092915050565b60006020828403121561166a57600080fd5b600082013567ffffffffffffffff81111561168457600080fd5b611690848285016115f0565b91505092915050565b600080604083850312156116ac57600080fd5b600083013567ffffffffffffffff8111156116c657600080fd5b6116d2858286016115f0565b92505060206116e3858286016115db565b9150509250929050565b6000602082840312156116ff57600080fd5b600061170d8482850161161a565b91505092915050565b61171f81611f9c565b82525050565b61172e81611f8a565b82525050565b61173d81611fae565b82525050565b61174c81611ff7565b82525050565b600061175d82611ece565b6117678185611ee4565b9350611777818560208601612018565b61178081612139565b840191505092915050565b600061179682611ece565b6117a08185611ef5565b93506117b0818560208601612018565b80840191505092915050565b600081546117c98161204b565b6117d38186611ef5565b945060018216600081146117ee57600181146117ff57611832565b60ff19831686528186019350611832565b61180885611eb9565b60005b8381101561182a5781548189015260018201915060208101905061180b565b838801955050505b50505092915050565b6000611848600f83611ee4565b91507f496e76616c6964206164647265737300000000000000000000000000000000006000830152602082019050919050565b6000611888602683611ee4565b91507f4f776e61626c653a206e6577206f776e657220697320746865207a65726f206160008301527f64647265737300000000000000000000000000000000000000000000000000006020830152604082019050919050565b60006118ee601483611ee4565b91507f4661696c656420746f2073656e642045746865720000000000000000000000006000830152602082019050919050565b600061192e601883611ee4565b91507f5472616e7366657220646f6573206e6f742065786973742100000000000000006000830152602082019050919050565b600061196e602083611ee4565b91507f4f776e61626c653a2063616c6c6572206973206e6f7420746865206f776e65726000830152602082019050919050565b60006119ae601583611ee4565b91507f496e76616c696420636f756e74727920636f64652100000000000000000000006000830152602082019050919050565b60006119ee601583611ee4565b91507f496e73756666696369656e7420616d6d6f756e742100000000000000000000006000830152602082019050919050565b6000611a2e601e83611ee4565b91507f5472616e7366657220697320616c726561647920636f6e6669726d65642100006000830152602082019050919050565b6000611a6e600083611ed9565b9150600082019050919050565b6000611a88603683611ee4565b91507f546865726520617265207374696c6c20756e636f6e6669726d6564207472616e60008301527f73666572732061742074686973206164647265737321000000000000000000006020830152604082019050919050565b611aea81611fed565b82525050565b6000611afc828461178b565b915081905092915050565b6000611b1382846117bc565b915081905092915050565b6000611b2982611a61565b9150819050919050565b6000602082019050611b486000830184611725565b92915050565b6000602082019050611b636000830184611734565b92915050565b60006060820190508181036000830152611b838186611752565b9050611b926020830185611725565b611b9f6040830184611725565b949350505050565b60006020820190508181036000830152611bc08161183b565b9050919050565b60006020820190508181036000830152611be08161187b565b9050919050565b60006020820190508181036000830152611c00816118e1565b9050919050565b60006020820190508181036000830152611c2081611921565b9050919050565b60006020820190508181036000830152611c4081611961565b9050919050565b60006020820190508181036000830152611c60816119a1565b9050919050565b60006020820190508181036000830152611c80816119e1565b9050919050565b60006020820190508181036000830152611ca081611a21565b9050919050565b60006020820190508181036000830152611cc081611a7b565b9050919050565b6000602082019050611cdc6000830184611ae1565b92915050565b600060a082019050611cf76000830188611ae1565b611d046020830187611716565b8181036040830152611d168186611752565b9050611d256060830185611743565b611d326080830184611ae1565b9695505050505050565b600060c082019050611d516000830189611ae1565b611d5e6020830188611725565b8181036040830152611d708187611752565b9050611d7f6060830186611743565b611d8c6080830185611ae1565b611d9960a0830184611ae1565b979650505050505050565b6000608082019050611db96000830187611ae1565b611dc66020830186611725565b8181036040830152611dd88185611752565b9050611de76060830184611ae1565b95945050505050565b600060c082019050611e056000830189611ae1565b611e126020830188611725565b8181036040830152611e248187611752565b9050611e336060830186611ae1565b611e406080830185611743565b611e4d60a0830184611ae1565b979650505050505050565b6000604051905081810181811067ffffffffffffffff82111715611e7f57611e7e61210a565b5b8060405250919050565b600067ffffffffffffffff821115611ea457611ea361210a565b5b601f19601f8301169050602081019050919050565b60008190508160005260206000209050919050565b600081519050919050565b600081905092915050565b600082825260208201905092915050565b600081905092915050565b6000611f0b82611fed565b9150611f1683611fed565b9250827fffffffffffffffffffffffffffffffffffffffffffffffffffffffffffffffff03821115611f4b57611f4a61207d565b5b828201905092915050565b6000611f6182611fed565b9150611f6c83611fed565b925082821015611f7f57611f7e61207d565b5b828203905092915050565b6000611f9582611fcd565b9050919050565b6000611fa782611fcd565b9050919050565b60008115159050919050565b6000819050611fc88261214a565b919050565b600073ffffffffffffffffffffffffffffffffffffffff82169050919050565b6000819050919050565b600061200282611fba565b9050919050565b82818337600083830152505050565b60005b8381101561203657808201518184015260208101905061201b565b83811115612045576000848401525b50505050565b6000600282049050600182168061206357607f821691505b60208210811415612077576120766120db565b5b50919050565b7f4e487b7100000000000000000000000000000000000000000000000000000000600052601160045260246000fd5b7f4e487b7100000000000000000000000000000000000000000000000000000000600052602160045260246000fd5b7f4e487b7100000000000000000000000000000000000000000000000000000000600052602260045260246000fd5b7f4e487b7100000000000000000000000000000000000000000000000000000000600052604160045260246000fd5b6000601f19601f8301169050919050565b6002811061215b5761215a6120ac565b5b50565b61216781611f8a565b811461217257600080fd5b50565b61217e81611fed565b811461218957600080fd5b5056fea2646970667358221220a3f303058eb60f27bda4147614daca83cf8123b42c72e1d480647f17ad319b9964736f6c63430008000033",
  "immutableReferences": {},
  "source": "// SPDX-License-Identifier: MIT\npragma solidity ^0.8.0;\nimport \"@openzeppelin/contracts/access/Ownable.sol\";\n\ncontract CryptoUnion is Ownable {\n    //transfer id\n    uint256 public transferCount = 0;\n\n    //the initator needs to send > minValue for the transaction to go through\n    uint256 public minValue = 3e15;\n\n    //contry code (3 chars max) -> address mapping\n    mapping(string => address) public addresses;\n\n    //wallet address -> count of pending transfers mapping\n    mapping(address => uint256) public pendingTransfers;\n\n    // transfer id -> Transfer mapping\n    mapping(uint256 => Transfer) public transfers;\n\n    // enum State\n    // Sent - the money was sent to the desination country\n    // Confirmed - the initiator of the trasfer was sent a confirmation that the intended recepient\n    // has received the money (a manual step for now)\n    // If the send fails the initiator will be refued their payment minus the gas fees via revert\n    // State transitions:\n    // Sent -> Confirmed\n    enum Status {\n        Sent,\n        Confirmed\n    }\n\n    // struct Transfer\n    struct Transfer {\n        uint256 transferId;\n        address payable from;\n        string to; //country code of the recepient\n        Status status;\n        uint256 amount;\n    }\n\n    /*\n     * Events\n     */\n    // <LogForSale event: sku arg>\n    event LogCountryAddressUpdated(\n        string countryCode,\n        address oldWallet,\n        address newWallet\n    );\n\n    event LogTransferSent(\n        uint256 transferId,\n        address from,\n        string to,\n        uint256 amount,\n        Status status,\n        uint256 contractFee\n    );\n    event LogTransferFailed(\n        uint256 transferId,\n        address from,\n        string to,\n        uint256 amount\n    );\n\n    /*\n     * Modifiers\n     */\n\n    modifier validCountryCode(string memory countrycode) {\n        bytes memory tempEmptyStringTest = bytes(countrycode);\n        require(tempEmptyStringTest.length == 3, \"Invalid country code!\");\n        _;\n    }\n\n    // validate that the initaltor of the transfer paid a non-zero amount\n    modifier paidEnough() {\n        require(msg.value >= minValue, \"Insufficient ammount!\");\n        _;\n    }\n\n    // validate transfer status, expectedStatus == actualStatus\n    modifier checkStatus(Status status) {\n        require(status == Status.Sent, \"Transfer is already confirmed!\");\n        _;\n    }\n\n    // we cannot uodate an address if there are pending transfers tied to that address\n    modifier noPendingTransfers(string memory countryCode) {\n        require(\n            pendingTransfers[addresses[countryCode]] == 0,\n            \"There are still unconfirmed transfers at this address!\"\n        );\n        _;\n    }\n\n    modifier transferExists(uint256 _transferId) {\n        address from = transfers[_transferId].from;\n        require(from != address(0), \"Transfer does not exist!\");\n        _;\n    }\n\n    function adminSignIn() public view returns (bool) {\n        return msg.sender == owner();\n    }\n\n    function setAddress(string memory countryCode, address wallet)\n        public\n        onlyOwner\n        validCountryCode(countryCode)\n        noPendingTransfers(countryCode)\n    {\n        address oldWallet = addresses[countryCode];\n        addresses[countryCode] = wallet;\n        emit LogCountryAddressUpdated(countryCode, oldWallet, wallet);\n    }\n\n    function getAddress(string memory countryCode)\n        public\n        view\n        validCountryCode(countryCode)\n        returns (address)\n    {\n        return addresses[countryCode];\n    }\n\n    /*\n    function setMinValue(uint256 _minValue) public isOwner {\n        revert(\"Not implemented!\");\n    }\n    */\n    function getMinValue() public view returns (uint256) {\n        return minValue;\n    }\n\n    function getTransferCount() public view returns (uint256) {\n        return transferCount;\n    }\n\n    function sendEthToCountry(string memory countryCode)\n        public\n        payable\n        paidEnough\n        validCountryCode(countryCode)\n    {\n        // Here are the approximate steps:\n        // 1. Create a transfer - need to figure out how much the contract should charge for the service\n        if (addresses[countryCode] == address(0)) {\n            revert(\"Invalid address\");\n        }\n        uint256 amount = msg.value - minValue;\n        transfers[transferCount] = Transfer(\n            transferCount,\n            payable(msg.sender),\n            countryCode,\n            Status.Sent,\n            amount\n        );\n        pendingTransfers[addresses[countryCode]] += 1;\n        transferCount += 1;\n        // 2. Try to send money to addresses[countryCode]\n        (bool sent, ) = addresses[countryCode].call{value: amount}(\"\");\n        if (!sent) {\n            emit LogTransferFailed(\n                transferCount - 1,\n                msg.sender,\n                countryCode,\n                amount\n            );\n        }\n        require(sent, \"Failed to send Ether\");\n        // 3. If success, change the status to Sent\n        emit LogTransferSent(\n            transferCount - 1,\n            msg.sender,\n            countryCode,\n            amount,\n            Status.Sent,\n            minValue\n        );\n    }\n\n    /*\n    function sendToCountry(string memory countryCode)\n        public\n        payable\n        paidEnough\n    {\n        // Similar steps to sendEthToCountry() but with USDT\n        revert(\"Not implemented!\");\n    }\n\n    function refund(address sender) public returns (bool) {\n        revert(\"Not implemented!\");\n    }\n    */\n\n    function getTransfer(uint256 _transferId)\n        public\n        view\n        transferExists(_transferId)\n        returns (\n            uint256,\n            address,\n            string memory,\n            Status,\n            uint256,\n            uint256\n        )\n    {\n        return (\n            transfers[_transferId].transferId,\n            transfers[_transferId].from,\n            transfers[_transferId].to,\n            transfers[_transferId].status,\n            transfers[_transferId].amount,\n            minValue\n        );\n    }\n\n    function confirmTransfer(uint256 _transferId)\n        public\n        onlyOwner\n        transferExists(_transferId)\n        checkStatus(transfers[_transferId].status)\n    {\n        transfers[_transferId].status = Status.Confirmed;\n        pendingTransfers[addresses[transfers[_transferId].to]] -= 1;\n    }\n}\n",
  "sourcePath": "/Users/liubov/Desktop/blockchain-developer-bootcamp-final-project/contracts/CryptoUnion.sol",
  "compiler": {
    "name": "solc",
    "version": "0.8.0+commit.c7dfd78e.Emscripten.clang"
  },
  "schemaVersion": "3.4.3",
  "updatedAt": "2021-10-12T07:32:51.128Z",
  "networkType": "ethereum",
  "devdoc": {
    "kind": "dev",
    "methods": {
      "owner()": {
        "details": "Returns the address of the current owner."
      },
      "renounceOwnership()": {
        "details": "Leaves the contract without owner. It will not be possible to call `onlyOwner` functions anymore. Can only be called by the current owner. NOTE: Renouncing ownership will leave the contract without an owner, thereby removing any functionality that is only available to the owner."
      },
      "transferOwnership(address)": {
        "details": "Transfers ownership of the contract to a new account (`newOwner`). Can only be called by the current owner."
      }
    },
    "version": 1
  },
  "userdoc": {
    "kind": "user",
    "methods": {},
    "version": 1
  }
}