{
  "contractName": "CryptoUnion",
  "abi": [
    {
      "anonymous": false,
      "inputs": [
        {
          "indexed": false,
          "internalType": "bytes4",
          "name": "countryCode",
          "type": "bytes4"
        },
        {
          "indexed": false,
          "internalType": "address",
          "name": "oldWallet",
          "type": "address"
        },
        {
          "indexed": false,
          "internalType": "address",
          "name": "newWallet",
          "type": "address"
        }
      ],
      "name": "LogCountryUpdated",
      "type": "event"
    },
    {
      "anonymous": false,
      "inputs": [
        {
          "indexed": false,
          "internalType": "bytes4",
          "name": "countryCode",
          "type": "bytes4"
        },
        {
          "indexed": false,
          "internalType": "address",
          "name": "wallet",
          "type": "address"
        }
      ],
      "name": "LogGetAddress",
      "type": "event"
    },
    {
      "constant": true,
      "inputs": [
        {
          "internalType": "bytes4",
          "name": "",
          "type": "bytes4"
        }
      ],
      "name": "addresses",
      "outputs": [
        {
          "internalType": "address",
          "name": "",
          "type": "address"
        }
      ],
      "payable": false,
      "stateMutability": "view",
      "type": "function"
    },
    {
      "constant": true,
      "inputs": [],
      "name": "minValue",
      "outputs": [
        {
          "internalType": "uint256",
          "name": "",
          "type": "uint256"
        }
      ],
      "payable": false,
      "stateMutability": "view",
      "type": "function"
    },
    {
      "constant": true,
      "inputs": [],
      "name": "owner",
      "outputs": [
        {
          "internalType": "address",
          "name": "",
          "type": "address"
        }
      ],
      "payable": false,
      "stateMutability": "view",
      "type": "function"
    },
    {
      "constant": true,
      "inputs": [
        {
          "internalType": "address",
          "name": "",
          "type": "address"
        }
      ],
      "name": "pendingTransfers",
      "outputs": [
        {
          "internalType": "uint256",
          "name": "",
          "type": "uint256"
        }
      ],
      "payable": false,
      "stateMutability": "view",
      "type": "function"
    },
    {
      "constant": true,
      "inputs": [],
      "name": "transferCount",
      "outputs": [
        {
          "internalType": "uint256",
          "name": "",
          "type": "uint256"
        }
      ],
      "payable": false,
      "stateMutability": "view",
      "type": "function"
    },
    {
      "constant": true,
      "inputs": [
        {
          "internalType": "uint256",
          "name": "",
          "type": "uint256"
        }
      ],
      "name": "transfers",
      "outputs": [
        {
          "internalType": "uint256",
          "name": "transferId",
          "type": "uint256"
        },
        {
          "internalType": "address payable",
          "name": "from",
          "type": "address"
        },
        {
          "internalType": "bytes4",
          "name": "to",
          "type": "bytes4"
        },
        {
          "internalType": "enum CryptoUnion.Status",
          "name": "status",
          "type": "uint8"
        },
        {
          "internalType": "uint256",
          "name": "amount",
          "type": "uint256"
        }
      ],
      "payable": false,
      "stateMutability": "view",
      "type": "function"
    },
    {
      "constant": false,
      "inputs": [
        {
          "internalType": "bytes4",
          "name": "countryCode",
          "type": "bytes4"
        },
        {
          "internalType": "address",
          "name": "wallet",
          "type": "address"
        }
      ],
      "name": "setAddress",
      "outputs": [],
      "payable": false,
      "stateMutability": "nonpayable",
      "type": "function"
    },
    {
      "constant": true,
      "inputs": [
        {
          "internalType": "bytes4",
          "name": "countryCode",
          "type": "bytes4"
        },
        {
          "internalType": "address",
          "name": "wallet",
          "type": "address"
        }
      ],
      "name": "getAddress",
      "outputs": [
        {
          "internalType": "address",
          "name": "",
          "type": "address"
        }
      ],
      "payable": false,
      "stateMutability": "view",
      "type": "function"
    },
    {
      "constant": false,
      "inputs": [
        {
          "internalType": "uint256",
          "name": "_minValue",
          "type": "uint256"
        }
      ],
      "name": "setMinValue",
      "outputs": [],
      "payable": false,
      "stateMutability": "nonpayable",
      "type": "function"
    },
    {
      "constant": true,
      "inputs": [],
      "name": "getMinValue",
      "outputs": [
        {
          "internalType": "uint256",
          "name": "",
          "type": "uint256"
        }
      ],
      "payable": false,
      "stateMutability": "view",
      "type": "function"
    },
    {
      "constant": false,
      "inputs": [
        {
          "internalType": "bytes4",
          "name": "countryCode",
          "type": "bytes4"
        }
      ],
      "name": "sendEthToCountry",
      "outputs": [],
      "payable": true,
      "stateMutability": "payable",
      "type": "function"
    },
    {
      "constant": false,
      "inputs": [
        {
          "internalType": "address",
          "name": "sender",
          "type": "address"
        }
      ],
      "name": "refundEth",
      "outputs": [
        {
          "internalType": "bool",
          "name": "",
          "type": "bool"
        }
      ],
      "payable": false,
      "stateMutability": "nonpayable",
      "type": "function"
    },
    {
      "constant": false,
      "inputs": [
        {
          "internalType": "address",
          "name": "sender",
          "type": "address"
        }
      ],
      "name": "refund",
      "outputs": [
        {
          "internalType": "bool",
          "name": "",
          "type": "bool"
        }
      ],
      "payable": false,
      "stateMutability": "nonpayable",
      "type": "function"
    },
    {
      "constant": true,
      "inputs": [
        {
          "internalType": "uint256",
          "name": "_transferId",
          "type": "uint256"
        }
      ],
      "name": "getTransfer",
      "outputs": [
        {
          "internalType": "uint256",
          "name": "",
          "type": "uint256"
        },
        {
          "internalType": "address",
          "name": "",
          "type": "address"
        },
        {
          "internalType": "bytes4",
          "name": "",
          "type": "bytes4"
        },
        {
          "internalType": "uint256",
          "name": "",
          "type": "uint256"
        }
      ],
      "payable": false,
      "stateMutability": "view",
      "type": "function"
    },
    {
      "constant": false,
      "inputs": [
        {
          "internalType": "uint256",
          "name": "_transferId",
          "type": "uint256"
        }
      ],
      "name": "confirmTransfer",
      "outputs": [],
      "payable": false,
      "stateMutability": "nonpayable",
      "type": "function"
    }
  ],
  "bytecode": "0x6080604052336000806101000a81548173ffffffffffffffffffffffffffffffffffffffff021916908373ffffffffffffffffffffffffffffffffffffffff1602179055506000600155600060025534801561005a57600080fd5b50610f308061006a6000396000f3fe6080604052600436106100e85760003560e01c8063963e63c71161008a578063db91774c11610059578063db91774c14610622578063e3d33fc91461065d578063f2e335d614610688578063fa89401a146106d5576100e8565b8063963e63c71461045b578063be22dd6514610486578063c16fe907146104eb578063d83edd70146105b9576100e8565b80634b30a6a1116100c65780634b30a6a11461025c5780637a62fc7b146102875780638da5cb5b146103215780639377d71114610378576100e8565b80632c48e7db146100ed5780633cb02683146101285780634606fce0146101e2575b600080fd5b3480156100f957600080fd5b506101266004803603602081101561011057600080fd5b810190808035906020019092919050505061073e565b005b34801561013457600080fd5b506101a06004803603604081101561014b57600080fd5b8101908080357bffffffffffffffffffffffffffffffffffffffffffffffffffffffff19169060200190929190803573ffffffffffffffffffffffffffffffffffffffff169060200190929190505050610894565b604051808273ffffffffffffffffffffffffffffffffffffffff1673ffffffffffffffffffffffffffffffffffffffff16815260200191505060405180910390f35b3480156101ee57600080fd5b5061025a6004803603604081101561020557600080fd5b8101908080357bffffffffffffffffffffffffffffffffffffffffffffffffffffffff19169060200190929190803573ffffffffffffffffffffffffffffffffffffffff169060200190929190505050610904565b005b34801561026857600080fd5b50610271610a35565b6040518082815260200191505060405180910390f35b34801561029357600080fd5b506102df600480360360208110156102aa57600080fd5b8101908080357bffffffffffffffffffffffffffffffffffffffffffffffffffffffff19169060200190929190505050610aa5565b604051808273ffffffffffffffffffffffffffffffffffffffff1673ffffffffffffffffffffffffffffffffffffffff16815260200191505060405180910390f35b34801561032d57600080fd5b50610336610ad8565b604051808273ffffffffffffffffffffffffffffffffffffffff1673ffffffffffffffffffffffffffffffffffffffff16815260200191505060405180910390f35b34801561038457600080fd5b506103b16004803603602081101561039b57600080fd5b8101908080359060200190929190505050610afd565b604051808681526020018573ffffffffffffffffffffffffffffffffffffffff1673ffffffffffffffffffffffffffffffffffffffff168152602001847bffffffffffffffffffffffffffffffffffffffffffffffffffffffff19167bffffffffffffffffffffffffffffffffffffffffffffffffffffffff1916815260200183600381111561043d57fe5b60ff1681526020018281526020019550505050505060405180910390f35b34801561046757600080fd5b50610470610b6d565b6040518082815260200191505060405180910390f35b34801561049257600080fd5b506104d5600480360360208110156104a957600080fd5b81019080803573ffffffffffffffffffffffffffffffffffffffff169060200190929190505050610b73565b6040518082815260200191505060405180910390f35b3480156104f757600080fd5b506105246004803603602081101561050e57600080fd5b8101908080359060200190929190505050610b8b565b604051808581526020018473ffffffffffffffffffffffffffffffffffffffff1673ffffffffffffffffffffffffffffffffffffffff168152602001837bffffffffffffffffffffffffffffffffffffffffffffffffffffffff19167bffffffffffffffffffffffffffffffffffffffffffffffffffffffff1916815260200182815260200194505050505060405180910390f35b3480156105c557600080fd5b50610608600480360360208110156105dc57600080fd5b81019080803573ffffffffffffffffffffffffffffffffffffffff169060200190929190505050610bff565b604051808215151515815260200191505060405180910390f35b34801561062e57600080fd5b5061065b6004803603602081101561064557600080fd5b8101908080359060200190929190505050610c6f565b005b34801561066957600080fd5b50610672610d9f565b6040518082815260200191505060405180910390f35b6106d36004803603602081101561069e57600080fd5b8101908080357bffffffffffffffffffffffffffffffffffffffffffffffffffffffff19169060200190929190505050610da5565b005b3480156106e157600080fd5b50610724600480360360208110156106f857600080fd5b81019080803573ffffffffffffffffffffffffffffffffffffffff169060200190929190505050610e8b565b604051808215151515815260200191505060405180910390f35b6000809054906101000a900473ffffffffffffffffffffffffffffffffffffffff1673ffffffffffffffffffffffffffffffffffffffff163373ffffffffffffffffffffffffffffffffffffffff1614610800576040517f08c379a000000000000000000000000000000000000000000000000000000000815260040180806020018281038252600f8152602001807f4f776e657220726571756972656421000000000000000000000000000000000081525060200191505060405180910390fd5b60016005600083815260200190815260200160002060010160189054906101000a900460ff166040517f08c379a00000000000000000000000000000000000000000000000000000000081526004018080602001828103825260108152602001807f4e6f7420696d706c656d656e746564210000000000000000000000000000000081525060200191505060405180910390fd5b60006040517f08c379a00000000000000000000000000000000000000000000000000000000081526004018080602001828103825260108152602001807f4e6f7420696d706c656d656e746564210000000000000000000000000000000081525060200191505060405180910390fd5b6000809054906101000a900473ffffffffffffffffffffffffffffffffffffffff1673ffffffffffffffffffffffffffffffffffffffff163373ffffffffffffffffffffffffffffffffffffffff16146109c6576040517f08c379a000000000000000000000000000000000000000000000000000000000815260040180806020018281038252600f8152602001807f4f776e657220726571756972656421000000000000000000000000000000000081525060200191505060405180910390fd5b816040517f08c379a00000000000000000000000000000000000000000000000000000000081526004018080602001828103825260108152602001807f4e6f7420696d706c656d656e746564210000000000000000000000000000000081525060200191505060405180910390fd5b60006040517f08c379a00000000000000000000000000000000000000000000000000000000081526004018080602001828103825260108152602001807f4e6f7420696d706c656d656e746564210000000000000000000000000000000081525060200191505060405180910390fd5b60036020528060005260406000206000915054906101000a900473ffffffffffffffffffffffffffffffffffffffff1681565b6000809054906101000a900473ffffffffffffffffffffffffffffffffffffffff1681565b60056020528060005260406000206000915090508060000154908060010160009054906101000a900473ffffffffffffffffffffffffffffffffffffffff16908060010160149054906101000a900460e01b908060010160189054906101000a900460ff16908060020154905085565b60025481565b60046020528060005260406000206000915090505481565b6000806000806040517f08c379a00000000000000000000000000000000000000000000000000000000081526004018080602001828103825260108152602001807f4e6f7420696d706c656d656e746564210000000000000000000000000000000081525060200191505060405180910390fd5b60006040517f08c379a00000000000000000000000000000000000000000000000000000000081526004018080602001828103825260108152602001807f4e6f7420696d706c656d656e746564210000000000000000000000000000000081525060200191505060405180910390fd5b6000809054906101000a900473ffffffffffffffffffffffffffffffffffffffff1673ffffffffffffffffffffffffffffffffffffffff163373ffffffffffffffffffffffffffffffffffffffff1614610d31576040517f08c379a000000000000000000000000000000000000000000000000000000000815260040180806020018281038252600f8152602001807f4f776e657220726571756972656421000000000000000000000000000000000081525060200191505060405180910390fd5b6040517f08c379a00000000000000000000000000000000000000000000000000000000081526004018080602001828103825260108152602001807f4e6f7420696d706c656d656e746564210000000000000000000000000000000081525060200191505060405180910390fd5b60015481565b600254341015610e1d576040517f08c379a00000000000000000000000000000000000000000000000000000000081526004018080602001828103825260158152602001807f496e73756666696369656e7420616d6d6f756e7421000000000000000000000081525060200191505060405180910390fd5b6040517f08c379a00000000000000000000000000000000000000000000000000000000081526004018080602001828103825260108152602001807f4e6f7420696d706c656d656e746564210000000000000000000000000000000081525060200191505060405180910390fd5b60006040517f08c379a00000000000000000000000000000000000000000000000000000000081526004018080602001828103825260108152602001807f4e6f7420696d706c656d656e746564210000000000000000000000000000000081525060200191505060405180910390fdfea265627a7a723158207904e908a1da0a894548efce18ad086a00446e8db83b31d78a3426918cbe7af964736f6c63430005100032",
  "source": "// SPDX-License-Identifier: MIT\npragma solidity >=0.4.21 <0.7.0;\n\n\ncontract CryptoUnion {\n    // <owner>\n    address public owner = msg.sender;\n\n    //transfer id\n    uint public transferCount = 0;\n\n    //the initator needs to send > minValue for the transaction to go through\n    uint public minValue = 0;\n\n    //contry code (3 chars max) -> address mapping\n    mapping(bytes4 => address) public addresses;\n\n    //wallet address -> count of pending transfers mapping\n    mapping(address => uint) public pendingTransfers;\n\n    // transfer uuid -> Transfer mapping\n    mapping(uint => Transfer) public transfers;\n\n    // enum State\n    // Initiated - user initiated the trasfer\n    // Sent - the money was sent to the desination country\n    // Failed - the money was not sent to the destination country, because of some error\n    // Confirmed - the initiator of the trasfer was sent a confirmation that the intended recepient \n    // has received the money\n    // Refunded - the initiator of the trasfer was refunded their payment minus the gas fees\n    // State transitions: \n    //     Initalized\n    //     /        \\\n    //   Sent     Refunded\n    //    |\n    // Confirmed\n    enum Status { Initiated, Sent, Confirmed, Refunded }\n\n    // struct Transfer\n    struct Transfer {\n        uint transferId;\n        address payable from;\n        bytes4 to; //country code of the recepient\n        Status status;\n        uint amount; \n    }\n\n    /*\n     * Events\n     */\n    // <LogForSale event: sku arg>\n    event LogCountryUpdated(bytes4 countryCode, address oldWallet, address newWallet);\n\n    // <LogSold event: sku arg>\n    event LogGetAddress(bytes4 countryCode, address wallet);\n\n    /*\n     * Modifiers\n     */\n    modifier isOwner {\n        require(msg.sender == owner, \"Owner required!\");\n        _;\n    }\n\n    // validate that the initaltor of the transfer paid a non-zero amount\n    modifier paidEnough {\n        require(msg.value >= minValue, \"Insufficient ammount!\");\n        _;\n    }\n\n    // validate transfer status, expectedStatus == actualStatus\n    modifier checkStatus(Status expectedStatus, Status actualStatus) {\n        revert(\"Not implemented!\");\n        _;\n    }\n\n    // we cannot uodate an address if there are pending transfers tied to that address\n    modifier noPendingTransfers(bytes4 countryCode) {\n        revert(\"Not implemented!\");\n        _;  \n    }\n\n    function setAddress(bytes4 countryCode, address wallet) public isOwner \n    noPendingTransfers(countryCode) \n    {\n        revert(\"Not implemented!\");\n    }\n\n    function getAddress(bytes4 countryCode, address wallet) public view returns(address)\n    {\n        revert(\"Not implemented!\");\n        return address(0);\n    }\n\n    function setMinValue(uint _minValue) public isOwner\n    {\n        revert(\"Not implemented!\");\n    }\n\n    function getMinValue() public view returns(uint)\n    {\n        revert(\"Not implemented!\");\n    }\n    \n    function sendEthToCountry(bytes4 countryCode) public payable paidEnough {\n        // Here are the approximate steps:\n        // 1. Create a transfer - need to figure out how much the contract should charge for the service\n        // 2. Try to send money to addresses[countryCode]\n        // 3. If success, change the status to Sent\n        // 4. If fail, refund the money to the sender (minus the contract fees) and change the status to Refunded\n        revert(\"Not implemented!\");\n    }\n\n    function refundEth(address sender) public returns(bool) {\n        revert(\"Not implemented!\");\n    }\n    /*\n    function sendToCountry(bytes4 memory countryCode) public payable returns(bool) paidEnough {\n        // Similar steps to sendEthToCountry() but with USDT\n        assert(\"Not implemented!\");\n        return false;\n    }\n    */\n\n    function refund(address sender) public returns(bool) {\n        // Here are the approximate steps:\n        // 1. Create a transfer - need to figure out how much the contract should charge for the service\n        // 2. Try to send money to addresses[countryCode]\n        // 3. If success, change the status to Sent\n        // 4. If fail, refund the money to the sender (minus the contract fees) and change the status to Refunded\n        revert(\"Not implemented!\");\n    }\n\n    function getTransfer(uint _transferId) public view returns(uint, address, bytes4, uint) \n    {\n        revert(\"Not implemented!\");\n    }\n    \n    function confirmTransfer(uint _transferId) public \n    isOwner\n    checkStatus(Status.Sent, transfers[_transferId].status) \n    {\n        revert(\"Not implemented!\");\n    }\n}\n",
  "sourcePath": "/Users/liubov/Desktop/blockchain-developer-bootcamp-final-project/contracts/CryptoUnion.sol",
  "compiler": {
    "name": "solc",
    "version": "0.5.16+commit.9c3226ce.Emscripten.clang"
  },
  "schemaVersion": "3.4.3",
  "updatedAt": "2021-10-04T01:03:11.760Z",
  "devdoc": {
    "methods": {}
  },
  "userdoc": {
    "methods": {}
  }
}