{
  "contractName": "CryptoUnion",
  "abi": [
    {
      "anonymous": false,
      "inputs": [
        {
          "indexed": false,
          "internalType": "string",
          "name": "countryCode",
          "type": "string"
        },
        {
          "indexed": false,
          "internalType": "address",
          "name": "oldWallet",
          "type": "address"
        },
        {
          "indexed": false,
          "internalType": "address",
          "name": "newWallet",
          "type": "address"
        }
      ],
      "name": "LogCountryAddressUpdated",
      "type": "event"
    },
    {
      "anonymous": false,
      "inputs": [
        {
          "indexed": false,
          "internalType": "uint256",
          "name": "transferId",
          "type": "uint256"
        },
        {
          "indexed": false,
          "internalType": "address",
          "name": "from",
          "type": "address"
        },
        {
          "indexed": false,
          "internalType": "string",
          "name": "to",
          "type": "string"
        },
        {
          "indexed": false,
          "internalType": "uint256",
          "name": "amount",
          "type": "uint256"
        }
      ],
      "name": "LogTransferFailed",
      "type": "event"
    },
    {
      "anonymous": false,
      "inputs": [
        {
          "indexed": false,
          "internalType": "uint256",
          "name": "transferId",
          "type": "uint256"
        },
        {
          "indexed": false,
          "internalType": "address",
          "name": "from",
          "type": "address"
        },
        {
          "indexed": false,
          "internalType": "string",
          "name": "to",
          "type": "string"
        },
        {
          "indexed": false,
          "internalType": "uint256",
          "name": "amount",
          "type": "uint256"
        },
        {
          "indexed": false,
          "internalType": "enum CryptoUnion.Status",
          "name": "status",
          "type": "uint8"
        },
        {
          "indexed": false,
          "internalType": "uint256",
          "name": "contractFee",
          "type": "uint256"
        }
      ],
      "name": "LogTransferSent",
      "type": "event"
    },
    {
      "anonymous": false,
      "inputs": [
        {
          "indexed": true,
          "internalType": "address",
          "name": "previousOwner",
          "type": "address"
        },
        {
          "indexed": true,
          "internalType": "address",
          "name": "newOwner",
          "type": "address"
        }
      ],
      "name": "OwnershipTransferred",
      "type": "event"
    },
    {
      "anonymous": false,
      "inputs": [
        {
          "indexed": false,
          "internalType": "address",
          "name": "account",
          "type": "address"
        }
      ],
      "name": "Paused",
      "type": "event"
    },
    {
      "anonymous": false,
      "inputs": [
        {
          "indexed": false,
          "internalType": "address",
          "name": "account",
          "type": "address"
        }
      ],
      "name": "Unpaused",
      "type": "event"
    },
    {
      "inputs": [
        {
          "internalType": "string",
          "name": "",
          "type": "string"
        }
      ],
      "name": "addresses",
      "outputs": [
        {
          "internalType": "address",
          "name": "",
          "type": "address"
        }
      ],
      "stateMutability": "view",
      "type": "function",
      "constant": true
    },
    {
      "inputs": [],
      "name": "minValue",
      "outputs": [
        {
          "internalType": "uint256",
          "name": "",
          "type": "uint256"
        }
      ],
      "stateMutability": "view",
      "type": "function",
      "constant": true
    },
    {
      "inputs": [],
      "name": "owner",
      "outputs": [
        {
          "internalType": "address",
          "name": "",
          "type": "address"
        }
      ],
      "stateMutability": "view",
      "type": "function",
      "constant": true
    },
    {
      "inputs": [],
      "name": "paused",
      "outputs": [
        {
          "internalType": "bool",
          "name": "",
          "type": "bool"
        }
      ],
      "stateMutability": "view",
      "type": "function",
      "constant": true
    },
    {
      "inputs": [
        {
          "internalType": "address",
          "name": "",
          "type": "address"
        }
      ],
      "name": "pendingTransfers",
      "outputs": [
        {
          "internalType": "uint256",
          "name": "",
          "type": "uint256"
        }
      ],
      "stateMutability": "view",
      "type": "function",
      "constant": true
    },
    {
      "inputs": [],
      "name": "renounceOwnership",
      "outputs": [],
      "stateMutability": "nonpayable",
      "type": "function"
    },
    {
      "inputs": [],
      "name": "transferCount",
      "outputs": [
        {
          "internalType": "uint256",
          "name": "",
          "type": "uint256"
        }
      ],
      "stateMutability": "view",
      "type": "function",
      "constant": true
    },
    {
      "inputs": [
        {
          "internalType": "address",
          "name": "newOwner",
          "type": "address"
        }
      ],
      "name": "transferOwnership",
      "outputs": [],
      "stateMutability": "nonpayable",
      "type": "function"
    },
    {
      "inputs": [
        {
          "internalType": "uint256",
          "name": "",
          "type": "uint256"
        }
      ],
      "name": "transfers",
      "outputs": [
        {
          "internalType": "uint256",
          "name": "transferId",
          "type": "uint256"
        },
        {
          "internalType": "address payable",
          "name": "from",
          "type": "address"
        },
        {
          "internalType": "string",
          "name": "to",
          "type": "string"
        },
        {
          "internalType": "enum CryptoUnion.Status",
          "name": "status",
          "type": "uint8"
        },
        {
          "internalType": "uint256",
          "name": "amount",
          "type": "uint256"
        }
      ],
      "stateMutability": "view",
      "type": "function",
      "constant": true
    },
    {
      "inputs": [],
      "name": "adminSignIn",
      "outputs": [
        {
          "internalType": "bool",
          "name": "",
          "type": "bool"
        }
      ],
      "stateMutability": "view",
      "type": "function",
      "constant": true
    },
    {
      "inputs": [
        {
          "internalType": "string",
          "name": "countryCode",
          "type": "string"
        },
        {
          "internalType": "address",
          "name": "wallet",
          "type": "address"
        }
      ],
      "name": "setAddress",
      "outputs": [],
      "stateMutability": "nonpayable",
      "type": "function"
    },
    {
      "inputs": [
        {
          "internalType": "string",
          "name": "countryCode",
          "type": "string"
        }
      ],
      "name": "getAddress",
      "outputs": [
        {
          "internalType": "address",
          "name": "",
          "type": "address"
        }
      ],
      "stateMutability": "view",
      "type": "function",
      "constant": true
    },
    {
      "inputs": [],
      "name": "getMinValue",
      "outputs": [
        {
          "internalType": "uint256",
          "name": "",
          "type": "uint256"
        }
      ],
      "stateMutability": "view",
      "type": "function",
      "constant": true
    },
    {
      "inputs": [],
      "name": "getTransferCount",
      "outputs": [
        {
          "internalType": "uint256",
          "name": "",
          "type": "uint256"
        }
      ],
      "stateMutability": "view",
      "type": "function",
      "constant": true
    },
    {
      "inputs": [
        {
          "internalType": "string",
          "name": "countryCode",
          "type": "string"
        }
      ],
      "name": "sendEthToCountry",
      "outputs": [],
      "stateMutability": "payable",
      "type": "function",
      "payable": true
    },
    {
      "inputs": [
        {
          "internalType": "uint256",
          "name": "_transferId",
          "type": "uint256"
        }
      ],
      "name": "getTransfer",
      "outputs": [
        {
          "internalType": "uint256",
          "name": "",
          "type": "uint256"
        },
        {
          "internalType": "address",
          "name": "",
          "type": "address"
        },
        {
          "internalType": "string",
          "name": "",
          "type": "string"
        },
        {
          "internalType": "enum CryptoUnion.Status",
          "name": "",
          "type": "uint8"
        },
        {
          "internalType": "uint256",
          "name": "",
          "type": "uint256"
        },
        {
          "internalType": "uint256",
          "name": "",
          "type": "uint256"
        }
      ],
      "stateMutability": "view",
      "type": "function",
      "constant": true
    },
    {
      "inputs": [
        {
          "internalType": "uint256",
          "name": "_transferId",
          "type": "uint256"
        }
      ],
      "name": "confirmTransfer",
      "outputs": [],
      "stateMutability": "nonpayable",
      "type": "function"
    },
    {
      "inputs": [],
      "name": "withdraw",
      "outputs": [],
      "stateMutability": "nonpayable",
      "type": "function"
    },
    {
      "inputs": [],
      "name": "pause",
      "outputs": [],
      "stateMutability": "nonpayable",
      "type": "function"
    },
    {
      "inputs": [],
      "name": "unpause",
      "outputs": [],
      "stateMutability": "nonpayable",
      "type": "function"
    }
  ],
  "bytecode": "0x60806040526000600155660aa87bee5380006002553480156200002157600080fd5b5062000042620000366200006260201b60201c565b6200006a60201b60201c565b60008060146101000a81548160ff0219169083151502179055506200012e565b600033905090565b60008060009054906101000a900473ffffffffffffffffffffffffffffffffffffffff169050816000806101000a81548173ffffffffffffffffffffffffffffffffffffffff021916908373ffffffffffffffffffffffffffffffffffffffff1602179055508173ffffffffffffffffffffffffffffffffffffffff168173ffffffffffffffffffffffffffffffffffffffff167f8be0079c531659141344cd1fd0a4f28419497f9722a3daafe3b4186f6b6457e060405160405180910390a35050565b612787806200013e6000396000f3fe60806040526004361061011f5760003560e01c80638da5cb5b116100a0578063be22dd6511610064578063be22dd651461036e578063bf40fac1146103ab578063c16fe907146103e8578063e3d33fc91461042a578063f2fde38b146104555761011f565b80638da5cb5b146102715780639377d7111461029c578063963e63c7146102dd5780639b2ea4bd14610308578063bdfe7d47146103315761011f565b80634b30a6a1116100e75780634b30a6a1146101d15780634cee308a146101fc5780635c975abb14610218578063715018a6146102435780638456cb591461025a5761011f565b8063040e55f5146101245780631cce57aa1461014f5780632c48e7db1461017a5780633ccfd60b146101a35780633f4ba83a146101ba575b600080fd5b34801561013057600080fd5b5061013961047e565b604051610146919061228c565b60405180910390f35b34801561015b57600080fd5b50610164610488565b60405161017191906120d3565b60405180910390f35b34801561018657600080fd5b506101a1600480360381019061019c9190611bf2565b6104c5565b005b3480156101af57600080fd5b506101b8610821565b005b3480156101c657600080fd5b506101cf61094c565b005b3480156101dd57600080fd5b506101e66109d2565b6040516101f3919061228c565b60405180910390f35b61021660048036038101906102119190611b5d565b6109dc565b005b34801561022457600080fd5b5061022d610f11565b60405161023a91906120d3565b60405180910390f35b34801561024f57600080fd5b50610258610f27565b005b34801561026657600080fd5b5061026f610faf565b005b34801561027d57600080fd5b50610286611035565b60405161029391906120b8565b60405180910390f35b3480156102a857600080fd5b506102c360048036038101906102be9190611bf2565b61105e565b6040516102d49594939291906122a7565b60405180910390f35b3480156102e957600080fd5b506102f2611149565b6040516102ff919061228c565b60405180910390f35b34801561031457600080fd5b5061032f600480360381019061032a9190611b9e565b61114f565b005b34801561033d57600080fd5b5061035860048036038101906103539190611b5d565b611401565b60405161036591906120b8565b60405180910390f35b34801561037a57600080fd5b5061039560048036038101906103909190611b34565b61144a565b6040516103a2919061228c565b60405180910390f35b3480156103b757600080fd5b506103d260048036038101906103cd9190611b5d565b611462565b6040516103df91906120b8565b60405180910390f35b3480156103f457600080fd5b5061040f600480360381019061040a9190611bf2565b6114f6565b60405161042196959493929190612301565b60405180910390f35b34801561043657600080fd5b5061043f6116f1565b60405161044c919061228c565b60405180910390f35b34801561046157600080fd5b5061047c60048036038101906104779190611b34565b6116f7565b005b6000600154905090565b6000610492611035565b73ffffffffffffffffffffffffffffffffffffffff163373ffffffffffffffffffffffffffffffffffffffff1614905090565b6104cd6117ef565b73ffffffffffffffffffffffffffffffffffffffff166104eb611035565b73ffffffffffffffffffffffffffffffffffffffff1614610541576040517f08c379a0000000000000000000000000000000000000000000000000000000008152600401610538906121ec565b60405180910390fd5b610549610f11565b15610589576040517f08c379a0000000000000000000000000000000000000000000000000000000008152600401610580906121ac565b60405180910390fd5b8060006005600083815260200190815260200160002060010160009054906101000a900473ffffffffffffffffffffffffffffffffffffffff169050600073ffffffffffffffffffffffffffffffffffffffff168173ffffffffffffffffffffffffffffffffffffffff161415610635576040517f08c379a000000000000000000000000000000000000000000000000000000000815260040161062c906121cc565b60405180910390fd5b6005600084815260200190815260200160002060030160009054906101000a900460ff1660006001811115610693577f4e487b7100000000000000000000000000000000000000000000000000000000600052602160045260246000fd5b8160018111156106cc577f4e487b7100000000000000000000000000000000000000000000000000000000600052602160045260246000fd5b1461070c576040517f08c379a00000000000000000000000000000000000000000000000000000000081526004016107039061224c565b60405180910390fd5b60016005600086815260200190815260200160002060030160006101000a81548160ff0219169083600181111561076c577f4e487b7100000000000000000000000000000000000000000000000000000000600052602160045260246000fd5b021790555060016004600060036005600089815260200190815260200160002060020160405161079c919061208c565b908152602001604051809103902060009054906101000a900473ffffffffffffffffffffffffffffffffffffffff1673ffffffffffffffffffffffffffffffffffffffff1673ffffffffffffffffffffffffffffffffffffffff1681526020019081526020016000206000828254610814919061251b565b9250508190555050505050565b6108296117ef565b73ffffffffffffffffffffffffffffffffffffffff16610847611035565b73ffffffffffffffffffffffffffffffffffffffff161461089d576040517f08c379a0000000000000000000000000000000000000000000000000000000008152600401610894906121ec565b60405180910390fd5b60003373ffffffffffffffffffffffffffffffffffffffff16476040516108c3906120a3565b60006040518083038185875af1925050503d8060008114610900576040519150601f19603f3d011682016040523d82523d6000602084013e610905565b606091505b5050905080610949576040517f08c379a00000000000000000000000000000000000000000000000000000000081526004016109409061218c565b60405180910390fd5b50565b6109546117ef565b73ffffffffffffffffffffffffffffffffffffffff16610972611035565b73ffffffffffffffffffffffffffffffffffffffff16146109c8576040517f08c379a00000000000000000000000000000000000000000000000000000000081526004016109bf906121ec565b60405180910390fd5b6109d06117f7565b565b6000600254905090565b600254341015610a21576040517f08c379a0000000000000000000000000000000000000000000000000000000008152600401610a189061222c565b60405180910390fd5b8060008190506003815114610a6b576040517f08c379a0000000000000000000000000000000000000000000000000000000008152600401610a629061220c565b60405180910390fd5b610a73610f11565b15610ab3576040517f08c379a0000000000000000000000000000000000000000000000000000000008152600401610aaa906121ac565b60405180910390fd5b600073ffffffffffffffffffffffffffffffffffffffff16600384604051610adb9190612075565b908152602001604051809103902060009054906101000a900473ffffffffffffffffffffffffffffffffffffffff1673ffffffffffffffffffffffffffffffffffffffff161415610b61576040517f08c379a0000000000000000000000000000000000000000000000000000000008152600401610b589061214c565b60405180910390fd5b600060025434610b71919061251b565b90506040518060a0016040528060015481526020013373ffffffffffffffffffffffffffffffffffffffff16815260200185815260200160006001811115610be2577f4e487b7100000000000000000000000000000000000000000000000000000000600052602160045260246000fd5b8152602001828152506005600060015481526020019081526020016000206000820151816000015560208201518160010160006101000a81548173ffffffffffffffffffffffffffffffffffffffff021916908373ffffffffffffffffffffffffffffffffffffffff1602179055506040820151816002019080519060200190610c6d9291906119ff565b5060608201518160030160006101000a81548160ff02191690836001811115610cbf577f4e487b7100000000000000000000000000000000000000000000000000000000600052602160045260246000fd5b021790555060808201518160040155905050600160046000600387604051610ce79190612075565b908152602001604051809103902060009054906101000a900473ffffffffffffffffffffffffffffffffffffffff1673ffffffffffffffffffffffffffffffffffffffff1673ffffffffffffffffffffffffffffffffffffffff1681526020019081526020016000206000828254610d5f91906124c5565b925050819055506001806000828254610d7891906124c5565b925050819055506000600385604051610d919190612075565b908152602001604051809103902060009054906101000a900473ffffffffffffffffffffffffffffffffffffffff1673ffffffffffffffffffffffffffffffffffffffff1682604051610de3906120a3565b60006040518083038185875af1925050503d8060008114610e20576040519150601f19603f3d011682016040523d82523d6000602084013e610e25565b606091505b5050905080610e79577f8677b57b8bb2cc7ee300f9aebe042b891a119b9949d3974d15f1f72b4fb3744d60018054610e5d919061251b565b338785604051610e709493929190612369565b60405180910390a15b80610eb9576040517f08c379a0000000000000000000000000000000000000000000000000000000008152600401610eb09061218c565b60405180910390fd5b7f6c7e0a6ecda086f3db70bd1293b039eb3aca113808ff54c4001d52546e1c96cb60018054610ee8919061251b565b3387856000600254604051610f02969594939291906123b5565b60405180910390a15050505050565b60008060149054906101000a900460ff16905090565b610f2f6117ef565b73ffffffffffffffffffffffffffffffffffffffff16610f4d611035565b73ffffffffffffffffffffffffffffffffffffffff1614610fa3576040517f08c379a0000000000000000000000000000000000000000000000000000000008152600401610f9a906121ec565b60405180910390fd5b610fad6000611898565b565b610fb76117ef565b73ffffffffffffffffffffffffffffffffffffffff16610fd5611035565b73ffffffffffffffffffffffffffffffffffffffff161461102b576040517f08c379a0000000000000000000000000000000000000000000000000000000008152600401611022906121ec565b60405180910390fd5b61103361195c565b565b60008060009054906101000a900473ffffffffffffffffffffffffffffffffffffffff16905090565b60056020528060005260406000206000915090508060000154908060010160009054906101000a900473ffffffffffffffffffffffffffffffffffffffff16908060020180546110ad90612610565b80601f01602080910402602001604051908101604052809291908181526020018280546110d990612610565b80156111265780601f106110fb57610100808354040283529160200191611126565b820191906000526020600020905b81548152906001019060200180831161110957829003601f168201915b5050505050908060030160009054906101000a900460ff16908060040154905085565b60025481565b6111576117ef565b73ffffffffffffffffffffffffffffffffffffffff16611175611035565b73ffffffffffffffffffffffffffffffffffffffff16146111cb576040517f08c379a00000000000000000000000000000000000000000000000000000000081526004016111c2906121ec565b60405180910390fd5b6111d3610f11565b15611213576040517f08c379a000000000000000000000000000000000000000000000000000000000815260040161120a906121ac565b60405180910390fd5b816000819050600381511461125d576040517f08c379a00000000000000000000000000000000000000000000000000000000081526004016112549061220c565b60405180910390fd5b836000600460006003846040516112749190612075565b908152602001604051809103902060009054906101000a900473ffffffffffffffffffffffffffffffffffffffff1673ffffffffffffffffffffffffffffffffffffffff1673ffffffffffffffffffffffffffffffffffffffff168152602001908152602001600020541461131e576040517f08c379a00000000000000000000000000000000000000000000000000000000081526004016113159061226c565b60405180910390fd5b60006003866040516113309190612075565b908152602001604051809103902060009054906101000a900473ffffffffffffffffffffffffffffffffffffffff169050846003876040516113729190612075565b908152602001604051809103902060006101000a81548173ffffffffffffffffffffffffffffffffffffffff021916908373ffffffffffffffffffffffffffffffffffffffff1602179055507f0f15edfba3e3ed3e9cbe4671b9e294e309914a0165e592062c5e456b83baa6958682876040516113f1939291906120ee565b60405180910390a1505050505050565b6003818051602081018201805184825260208301602085012081835280955050505050506000915054906101000a900473ffffffffffffffffffffffffffffffffffffffff1681565b60046020528060005260406000206000915090505481565b600081600081905060038151146114ae576040517f08c379a00000000000000000000000000000000000000000000000000000000081526004016114a59061220c565b60405180910390fd5b6003846040516114be9190612075565b908152602001604051809103902060009054906101000a900473ffffffffffffffffffffffffffffffffffffffff1692505050919050565b600080606060008060008660006005600083815260200190815260200160002060010160009054906101000a900473ffffffffffffffffffffffffffffffffffffffff169050600073ffffffffffffffffffffffffffffffffffffffff168173ffffffffffffffffffffffffffffffffffffffff1614156115ac576040517f08c379a00000000000000000000000000000000000000000000000000000000081526004016115a3906121cc565b60405180910390fd5b600560008a815260200190815260200160002060000154600560008b815260200190815260200160002060010160009054906101000a900473ffffffffffffffffffffffffffffffffffffffff16600560008c8152602001908152602001600020600201600560008d815260200190815260200160002060030160009054906101000a900460ff16600560008e81526020019081526020016000206004015460025483805461165a90612610565b80601f016020809104026020016040519081016040528092919081815260200182805461168690612610565b80156116d35780601f106116a8576101008083540402835291602001916116d3565b820191906000526020600020905b8154815290600101906020018083116116b657829003601f168201915b50505050509350975097509750975097509750505091939550919395565b60015481565b6116ff6117ef565b73ffffffffffffffffffffffffffffffffffffffff1661171d611035565b73ffffffffffffffffffffffffffffffffffffffff1614611773576040517f08c379a000000000000000000000000000000000000000000000000000000000815260040161176a906121ec565b60405180910390fd5b600073ffffffffffffffffffffffffffffffffffffffff168173ffffffffffffffffffffffffffffffffffffffff1614156117e3576040517f08c379a00000000000000000000000000000000000000000000000000000000081526004016117da9061216c565b60405180910390fd5b6117ec81611898565b50565b600033905090565b6117ff610f11565b61183e576040517f08c379a00000000000000000000000000000000000000000000000000000000081526004016118359061212c565b60405180910390fd5b60008060146101000a81548160ff0219169083151502179055507f5db9ee0a495bf2e6ff9c91a7834c1ba4fdd244a5e8aa4e537bd38aeae4b073aa6118816117ef565b60405161188e91906120b8565b60405180910390a1565b60008060009054906101000a900473ffffffffffffffffffffffffffffffffffffffff169050816000806101000a81548173ffffffffffffffffffffffffffffffffffffffff021916908373ffffffffffffffffffffffffffffffffffffffff1602179055508173ffffffffffffffffffffffffffffffffffffffff168173ffffffffffffffffffffffffffffffffffffffff167f8be0079c531659141344cd1fd0a4f28419497f9722a3daafe3b4186f6b6457e060405160405180910390a35050565b611964610f11565b156119a4576040517f08c379a000000000000000000000000000000000000000000000000000000000815260040161199b906121ac565b60405180910390fd5b6001600060146101000a81548160ff0219169083151502179055507f62e78cea01bee320cd4e420270b5ea74000d11b0c9f74754ebdbfc544b05a2586119e86117ef565b6040516119f591906120b8565b60405180910390a1565b828054611a0b90612610565b90600052602060002090601f016020900481019282611a2d5760008555611a74565b82601f10611a4657805160ff1916838001178555611a74565b82800160010185558215611a74579182015b82811115611a73578251825591602001919060010190611a58565b5b509050611a819190611a85565b5090565b5b80821115611a9e576000816000905550600101611a86565b5090565b6000611ab5611ab08461244e565b61241d565b905082815260208101848484011115611acd57600080fd5b611ad88482856125ce565b509392505050565b600081359050611aef81612723565b92915050565b600082601f830112611b0657600080fd5b8135611b16848260208601611aa2565b91505092915050565b600081359050611b2e8161273a565b92915050565b600060208284031215611b4657600080fd5b6000611b5484828501611ae0565b91505092915050565b600060208284031215611b6f57600080fd5b600082013567ffffffffffffffff811115611b8957600080fd5b611b9584828501611af5565b91505092915050565b60008060408385031215611bb157600080fd5b600083013567ffffffffffffffff811115611bcb57600080fd5b611bd785828601611af5565b9250506020611be885828601611ae0565b9150509250929050565b600060208284031215611c0457600080fd5b6000611c1284828501611b1f565b91505092915050565b611c2481612561565b82525050565b611c338161254f565b82525050565b611c4281612573565b82525050565b611c51816125bc565b82525050565b6000611c6282612493565b611c6c81856124a9565b9350611c7c8185602086016125dd565b611c85816126fe565b840191505092915050565b6000611c9b82612493565b611ca581856124ba565b9350611cb58185602086016125dd565b80840191505092915050565b60008154611cce81612610565b611cd881866124ba565b94506001821660008114611cf35760018114611d0457611d37565b60ff19831686528186019350611d37565b611d0d8561247e565b60005b83811015611d2f57815481890152600182019150602081019050611d10565b838801955050505b50505092915050565b6000611d4d6014836124a9565b91507f5061757361626c653a206e6f74207061757365640000000000000000000000006000830152602082019050919050565b6000611d8d600f836124a9565b91507f496e76616c6964206164647265737300000000000000000000000000000000006000830152602082019050919050565b6000611dcd6026836124a9565b91507f4f776e61626c653a206e6577206f776e657220697320746865207a65726f206160008301527f64647265737300000000000000000000000000000000000000000000000000006020830152604082019050919050565b6000611e336014836124a9565b91507f4661696c656420746f2073656e642045746865720000000000000000000000006000830152602082019050919050565b6000611e736010836124a9565b91507f5061757361626c653a20706175736564000000000000000000000000000000006000830152602082019050919050565b6000611eb36018836124a9565b91507f5472616e7366657220646f6573206e6f742065786973742100000000000000006000830152602082019050919050565b6000611ef36020836124a9565b91507f4f776e61626c653a2063616c6c6572206973206e6f7420746865206f776e65726000830152602082019050919050565b6000611f336015836124a9565b91507f496e76616c696420636f756e74727920636f64652100000000000000000000006000830152602082019050919050565b6000611f736015836124a9565b91507f496e73756666696369656e7420616d6d6f756e742100000000000000000000006000830152602082019050919050565b6000611fb3601e836124a9565b91507f5472616e7366657220697320616c726561647920636f6e6669726d65642100006000830152602082019050919050565b6000611ff360008361249e565b9150600082019050919050565b600061200d6036836124a9565b91507f546865726520617265207374696c6c20756e636f6e6669726d6564207472616e60008301527f73666572732061742074686973206164647265737321000000000000000000006020830152604082019050919050565b61206f816125b2565b82525050565b60006120818284611c90565b915081905092915050565b60006120988284611cc1565b915081905092915050565b60006120ae82611fe6565b9150819050919050565b60006020820190506120cd6000830184611c2a565b92915050565b60006020820190506120e86000830184611c39565b92915050565b600060608201905081810360008301526121088186611c57565b90506121176020830185611c2a565b6121246040830184611c2a565b949350505050565b6000602082019050818103600083015261214581611d40565b9050919050565b6000602082019050818103600083015261216581611d80565b9050919050565b6000602082019050818103600083015261218581611dc0565b9050919050565b600060208201905081810360008301526121a581611e26565b9050919050565b600060208201905081810360008301526121c581611e66565b9050919050565b600060208201905081810360008301526121e581611ea6565b9050919050565b6000602082019050818103600083015261220581611ee6565b9050919050565b6000602082019050818103600083015261222581611f26565b9050919050565b6000602082019050818103600083015261224581611f66565b9050919050565b6000602082019050818103600083015261226581611fa6565b9050919050565b6000602082019050818103600083015261228581612000565b9050919050565b60006020820190506122a16000830184612066565b92915050565b600060a0820190506122bc6000830188612066565b6122c96020830187611c1b565b81810360408301526122db8186611c57565b90506122ea6060830185611c48565b6122f76080830184612066565b9695505050505050565b600060c0820190506123166000830189612066565b6123236020830188611c2a565b81810360408301526123358187611c57565b90506123446060830186611c48565b6123516080830185612066565b61235e60a0830184612066565b979650505050505050565b600060808201905061237e6000830187612066565b61238b6020830186611c2a565b818103604083015261239d8185611c57565b90506123ac6060830184612066565b95945050505050565b600060c0820190506123ca6000830189612066565b6123d76020830188611c2a565b81810360408301526123e98187611c57565b90506123f86060830186612066565b6124056080830185611c48565b61241260a0830184612066565b979650505050505050565b6000604051905081810181811067ffffffffffffffff82111715612444576124436126cf565b5b8060405250919050565b600067ffffffffffffffff821115612469576124686126cf565b5b601f19601f8301169050602081019050919050565b60008190508160005260206000209050919050565b600081519050919050565b600081905092915050565b600082825260208201905092915050565b600081905092915050565b60006124d0826125b2565b91506124db836125b2565b9250827fffffffffffffffffffffffffffffffffffffffffffffffffffffffffffffffff038211156125105761250f612642565b5b828201905092915050565b6000612526826125b2565b9150612531836125b2565b92508282101561254457612543612642565b5b828203905092915050565b600061255a82612592565b9050919050565b600061256c82612592565b9050919050565b60008115159050919050565b600081905061258d8261270f565b919050565b600073ffffffffffffffffffffffffffffffffffffffff82169050919050565b6000819050919050565b60006125c78261257f565b9050919050565b82818337600083830152505050565b60005b838110156125fb5780820151818401526020810190506125e0565b8381111561260a576000848401525b50505050565b6000600282049050600182168061262857607f821691505b6020821081141561263c5761263b6126a0565b5b50919050565b7f4e487b7100000000000000000000000000000000000000000000000000000000600052601160045260246000fd5b7f4e487b7100000000000000000000000000000000000000000000000000000000600052602160045260246000fd5b7f4e487b7100000000000000000000000000000000000000000000000000000000600052602260045260246000fd5b7f4e487b7100000000000000000000000000000000000000000000000000000000600052604160045260246000fd5b6000601f19601f8301169050919050565b600281106127205761271f612671565b5b50565b61272c8161254f565b811461273757600080fd5b50565b612743816125b2565b811461274e57600080fd5b5056fea26469706673582212207605aaf7dfd1317ea77325b947307ad8f7579cfde6f366167d7e682c7644455b64736f6c63430008000033",
  "immutableReferences": {},
  "source": "// SPDX-License-Identifier: MIT\npragma solidity ^0.8.0;\nimport \"@openzeppelin/contracts/access/Ownable.sol\";\nimport \"@openzeppelin/contracts/security/Pausable.sol\";\n\ncontract CryptoUnion is Ownable, Pausable {\n    //transfer id\n    uint256 public transferCount = 0;\n\n    //the initator needs to send > minValue for the transaction to go through\n    uint256 public minValue = 3e15;\n\n    //contry code (3 chars max) -> address mapping\n    mapping(string => address) public addresses;\n\n    //wallet address -> count of pending transfers mapping\n    mapping(address => uint256) public pendingTransfers;\n\n    // transfer id -> Transfer mapping\n    mapping(uint256 => Transfer) public transfers;\n\n    // enum State\n    // Sent - the money was sent to the desination country\n    // Confirmed - the initiator of the trasfer was sent a confirmation that the intended recepient\n    // has received the money (a manual step for now)\n    // If the send fails the initiator will be refued their payment minus the gas fees via revert\n    // State transitions:\n    // Sent -> Confirmed\n    enum Status {\n        Sent,\n        Confirmed\n    }\n\n    // struct Transfer\n    struct Transfer {\n        uint256 transferId;\n        address payable from;\n        string to; //country code of the recepient\n        Status status;\n        uint256 amount;\n    }\n\n    /*\n     * Events\n     */\n    // <LogForSale event: sku arg>\n    event LogCountryAddressUpdated(\n        string countryCode,\n        address oldWallet,\n        address newWallet\n    );\n\n    event LogTransferSent(\n        uint256 transferId,\n        address from,\n        string to,\n        uint256 amount,\n        Status status,\n        uint256 contractFee\n    );\n    event LogTransferFailed(\n        uint256 transferId,\n        address from,\n        string to,\n        uint256 amount\n    );\n    /*\n     * Modifiers\n     */\n\n    modifier validCountryCode(string memory countrycode) {\n        bytes memory tempEmptyStringTest = bytes(countrycode);\n        require(tempEmptyStringTest.length == 3, \"Invalid country code!\");\n        _;\n    }\n\n    // validate that the initaltor of the transfer paid a non-zero amount\n    modifier paidEnough() {\n        require(msg.value >= minValue, \"Insufficient ammount!\");\n        _;\n    }\n\n    // validate transfer status, expectedStatus == actualStatus\n    modifier checkStatus(Status status) {\n        require(status == Status.Sent, \"Transfer is already confirmed!\");\n        _;\n    }\n\n    // we cannot uodate an address if there are pending transfers tied to that address\n    modifier noPendingTransfers(string memory countryCode) {\n        require(\n            pendingTransfers[addresses[countryCode]] == 0,\n            \"There are still unconfirmed transfers at this address!\"\n        );\n        _;\n    }\n\n    modifier transferExists(uint256 _transferId) {\n        address from = transfers[_transferId].from;\n        require(from != address(0), \"Transfer does not exist!\");\n        _;\n    }\n\n    function adminSignIn() public view returns (bool) {\n        return msg.sender == owner();\n    }\n\n    function setAddress(string memory countryCode, address wallet)\n        public\n        onlyOwner\n        whenNotPaused\n        validCountryCode(countryCode)\n        noPendingTransfers(countryCode)\n    {\n        address oldWallet = addresses[countryCode];\n        addresses[countryCode] = wallet;\n        emit LogCountryAddressUpdated(countryCode, oldWallet, wallet);\n    }\n\n    function getAddress(string memory countryCode)\n        public\n        view\n        validCountryCode(countryCode)\n        returns (address)\n    {\n        return addresses[countryCode];\n    }\n\n    /*\n    function setMinValue(uint256 _minValue) public isOwner {\n        revert(\"Not implemented!\");\n    }\n    */\n    function getMinValue() public view returns (uint256) {\n        return minValue;\n    }\n\n    function getTransferCount() public view returns (uint256) {\n        return transferCount;\n    }\n\n    function sendEthToCountry(string memory countryCode)\n        public\n        payable\n        paidEnough\n        validCountryCode(countryCode)\n        whenNotPaused\n    {\n        // Here are the approximate steps:\n        // 1. Create a transfer - need to figure out how much the contract should charge for the service\n        if (addresses[countryCode] == address(0)) {\n            revert(\"Invalid address\");\n        }\n        uint256 amount = msg.value - minValue;\n        transfers[transferCount] = Transfer(\n            transferCount,\n            payable(msg.sender),\n            countryCode,\n            Status.Sent,\n            amount\n        );\n        pendingTransfers[addresses[countryCode]] += 1;\n        transferCount += 1;\n        // 2. Try to send money to addresses[countryCode]\n        (bool sent, ) = addresses[countryCode].call{value: amount}(\"\");\n        if (!sent) {\n            emit LogTransferFailed(\n                transferCount - 1,\n                msg.sender,\n                countryCode,\n                amount\n            );\n        }\n        // defending afainst https://swcregistry.io/docs/SWC-104\n        require(sent, \"Failed to send Ether\");\n        // 3. If success, change the status to Sent\n        emit LogTransferSent(\n            transferCount - 1,\n            msg.sender,\n            countryCode,\n            amount,\n            Status.Sent,\n            minValue\n        );\n    }\n\n    /*\n    function sendToCountry(string memory countryCode)\n        public\n        payable\n        paidEnough\n    {\n        // Similar steps to sendEthToCountry() but with USDT\n        revert(\"Not implemented!\");\n    }\n\n    function refund(address sender) public returns (bool) {\n        revert(\"Not implemented!\");\n    }\n    */\n\n    function getTransfer(uint256 _transferId)\n        public\n        view\n        transferExists(_transferId)\n        returns (\n            uint256,\n            address,\n            string memory,\n            Status,\n            uint256,\n            uint256\n        )\n    {\n        return (\n            transfers[_transferId].transferId,\n            transfers[_transferId].from,\n            transfers[_transferId].to,\n            transfers[_transferId].status,\n            transfers[_transferId].amount,\n            minValue\n        );\n    }\n\n    function confirmTransfer(uint256 _transferId)\n        public\n        onlyOwner\n        whenNotPaused\n        transferExists(_transferId)\n        checkStatus(transfers[_transferId].status)\n    {\n        transfers[_transferId].status = Status.Confirmed;\n        pendingTransfers[addresses[transfers[_transferId].to]] -= 1;\n    }\n\n    function withdraw() public onlyOwner {\n        (bool sent, ) = msg.sender.call{value: address(this).balance}(\"\");\n        require(sent, \"Failed to send Ether\");\n    }\n\n    function pause() public onlyOwner {\n        Pausable._pause();\n    }\n\n    function unpause() public onlyOwner {\n        Pausable._unpause();\n    }\n}\n",
  "sourcePath": "/Users/liubov/Desktop/blockchain-developer-bootcamp-final-project/contracts/CryptoUnion.sol",
  "compiler": {
    "name": "solc",
    "version": "0.8.0+commit.c7dfd78e.Emscripten.clang"
  },
  "schemaVersion": "3.4.3",
  "updatedAt": "2021-10-18T01:54:06.034Z",
  "networkType": "ethereum",
  "devdoc": {
    "kind": "dev",
    "methods": {
      "owner()": {
        "details": "Returns the address of the current owner."
      },
      "paused()": {
        "details": "Returns true if the contract is paused, and false otherwise."
      },
      "renounceOwnership()": {
        "details": "Leaves the contract without owner. It will not be possible to call `onlyOwner` functions anymore. Can only be called by the current owner. NOTE: Renouncing ownership will leave the contract without an owner, thereby removing any functionality that is only available to the owner."
      },
      "transferOwnership(address)": {
        "details": "Transfers ownership of the contract to a new account (`newOwner`). Can only be called by the current owner."
      }
    },
    "version": 1
  },
  "userdoc": {
    "kind": "user",
    "methods": {},
    "version": 1
  }
}