{
  "contractName": "CryptoUnion",
  "abi": [
    {
      "anonymous": false,
      "inputs": [
        {
          "indexed": false,
          "internalType": "string",
          "name": "countryCode",
          "type": "string"
        },
        {
          "indexed": false,
          "internalType": "address",
          "name": "oldWallet",
          "type": "address"
        },
        {
          "indexed": false,
          "internalType": "address",
          "name": "newWallet",
          "type": "address"
        }
      ],
      "name": "LogCountryAddressUpdated",
      "type": "event"
    },
    {
      "anonymous": false,
      "inputs": [
        {
          "indexed": false,
          "internalType": "uint256",
          "name": "transferId",
          "type": "uint256"
        },
        {
          "indexed": false,
          "internalType": "address",
          "name": "from",
          "type": "address"
        },
        {
          "indexed": false,
          "internalType": "string",
          "name": "to",
          "type": "string"
        },
        {
          "indexed": false,
          "internalType": "uint256",
          "name": "amount",
          "type": "uint256"
        }
      ],
      "name": "LogTransferFailed",
      "type": "event"
    },
    {
      "anonymous": false,
      "inputs": [
        {
          "indexed": false,
          "internalType": "uint256",
          "name": "transferId",
          "type": "uint256"
        },
        {
          "indexed": false,
          "internalType": "address",
          "name": "from",
          "type": "address"
        },
        {
          "indexed": false,
          "internalType": "string",
          "name": "to",
          "type": "string"
        },
        {
          "indexed": false,
          "internalType": "uint256",
          "name": "amount",
          "type": "uint256"
        },
        {
          "indexed": false,
          "internalType": "enum CryptoUnion.Status",
          "name": "status",
          "type": "uint8"
        },
        {
          "indexed": false,
          "internalType": "uint256",
          "name": "contractFee",
          "type": "uint256"
        }
      ],
      "name": "LogTransferSent",
      "type": "event"
    },
    {
      "anonymous": false,
      "inputs": [
        {
          "indexed": true,
          "internalType": "address",
          "name": "previousOwner",
          "type": "address"
        },
        {
          "indexed": true,
          "internalType": "address",
          "name": "newOwner",
          "type": "address"
        }
      ],
      "name": "OwnershipTransferred",
      "type": "event"
    },
    {
      "anonymous": false,
      "inputs": [
        {
          "indexed": false,
          "internalType": "address",
          "name": "account",
          "type": "address"
        }
      ],
      "name": "Paused",
      "type": "event"
    },
    {
      "anonymous": false,
      "inputs": [
        {
          "indexed": false,
          "internalType": "address",
          "name": "account",
          "type": "address"
        }
      ],
      "name": "Unpaused",
      "type": "event"
    },
    {
      "inputs": [
        {
          "internalType": "string",
          "name": "",
          "type": "string"
        }
      ],
      "name": "addresses",
      "outputs": [
        {
          "internalType": "address",
          "name": "",
          "type": "address"
        }
      ],
      "stateMutability": "view",
      "type": "function",
      "constant": true
    },
    {
      "inputs": [],
      "name": "minValue",
      "outputs": [
        {
          "internalType": "uint256",
          "name": "",
          "type": "uint256"
        }
      ],
      "stateMutability": "view",
      "type": "function",
      "constant": true
    },
    {
      "inputs": [],
      "name": "owner",
      "outputs": [
        {
          "internalType": "address",
          "name": "",
          "type": "address"
        }
      ],
      "stateMutability": "view",
      "type": "function",
      "constant": true
    },
    {
      "inputs": [],
      "name": "paused",
      "outputs": [
        {
          "internalType": "bool",
          "name": "",
          "type": "bool"
        }
      ],
      "stateMutability": "view",
      "type": "function",
      "constant": true
    },
    {
      "inputs": [
        {
          "internalType": "address",
          "name": "",
          "type": "address"
        }
      ],
      "name": "pendingTransfers",
      "outputs": [
        {
          "internalType": "uint256",
          "name": "",
          "type": "uint256"
        }
      ],
      "stateMutability": "view",
      "type": "function",
      "constant": true
    },
    {
      "inputs": [],
      "name": "renounceOwnership",
      "outputs": [],
      "stateMutability": "nonpayable",
      "type": "function"
    },
    {
      "inputs": [],
      "name": "transferCount",
      "outputs": [
        {
          "internalType": "uint256",
          "name": "",
          "type": "uint256"
        }
      ],
      "stateMutability": "view",
      "type": "function",
      "constant": true
    },
    {
      "inputs": [
        {
          "internalType": "address",
          "name": "newOwner",
          "type": "address"
        }
      ],
      "name": "transferOwnership",
      "outputs": [],
      "stateMutability": "nonpayable",
      "type": "function"
    },
    {
      "inputs": [
        {
          "internalType": "uint256",
          "name": "",
          "type": "uint256"
        }
      ],
      "name": "transfers",
      "outputs": [
        {
          "internalType": "uint256",
          "name": "transferId",
          "type": "uint256"
        },
        {
          "internalType": "address payable",
          "name": "from",
          "type": "address"
        },
        {
          "internalType": "string",
          "name": "to",
          "type": "string"
        },
        {
          "internalType": "enum CryptoUnion.Status",
          "name": "status",
          "type": "uint8"
        },
        {
          "internalType": "uint256",
          "name": "amount",
          "type": "uint256"
        }
      ],
      "stateMutability": "view",
      "type": "function",
      "constant": true
    },
    {
      "inputs": [],
      "name": "adminSignIn",
      "outputs": [
        {
          "internalType": "bool",
          "name": "",
          "type": "bool"
        }
      ],
      "stateMutability": "view",
      "type": "function",
      "constant": true
    },
    {
      "inputs": [
        {
          "internalType": "string",
          "name": "countryCode",
          "type": "string"
        },
        {
          "internalType": "address",
          "name": "wallet",
          "type": "address"
        }
      ],
      "name": "setAddress",
      "outputs": [],
      "stateMutability": "nonpayable",
      "type": "function"
    },
    {
      "inputs": [
        {
          "internalType": "string",
          "name": "countryCode",
          "type": "string"
        }
      ],
      "name": "getAddress",
      "outputs": [
        {
          "internalType": "address",
          "name": "",
          "type": "address"
        }
      ],
      "stateMutability": "view",
      "type": "function",
      "constant": true
    },
    {
      "inputs": [],
      "name": "getMinValue",
      "outputs": [
        {
          "internalType": "uint256",
          "name": "",
          "type": "uint256"
        }
      ],
      "stateMutability": "view",
      "type": "function",
      "constant": true
    },
    {
      "inputs": [],
      "name": "getTransferCount",
      "outputs": [
        {
          "internalType": "uint256",
          "name": "",
          "type": "uint256"
        }
      ],
      "stateMutability": "view",
      "type": "function",
      "constant": true
    },
    {
      "inputs": [
        {
          "internalType": "string",
          "name": "countryCode",
          "type": "string"
        }
      ],
      "name": "sendEthToCountry",
      "outputs": [],
      "stateMutability": "payable",
      "type": "function",
      "payable": true
    },
    {
      "inputs": [
        {
          "internalType": "uint256",
          "name": "_transferId",
          "type": "uint256"
        }
      ],
      "name": "getTransfer",
      "outputs": [
        {
          "internalType": "uint256",
          "name": "",
          "type": "uint256"
        },
        {
          "internalType": "address",
          "name": "",
          "type": "address"
        },
        {
          "internalType": "string",
          "name": "",
          "type": "string"
        },
        {
          "internalType": "enum CryptoUnion.Status",
          "name": "",
          "type": "uint8"
        },
        {
          "internalType": "uint256",
          "name": "",
          "type": "uint256"
        },
        {
          "internalType": "uint256",
          "name": "",
          "type": "uint256"
        }
      ],
      "stateMutability": "view",
      "type": "function",
      "constant": true
    },
    {
      "inputs": [
        {
          "internalType": "uint256",
          "name": "_transferId",
          "type": "uint256"
        }
      ],
      "name": "confirmTransfer",
      "outputs": [],
      "stateMutability": "nonpayable",
      "type": "function"
    },
    {
      "inputs": [],
      "name": "withdraw",
      "outputs": [],
      "stateMutability": "nonpayable",
      "type": "function"
    },
    {
      "inputs": [],
      "name": "pause",
      "outputs": [],
      "stateMutability": "nonpayable",
      "type": "function"
    },
    {
      "inputs": [],
      "name": "unpause",
      "outputs": [],
      "stateMutability": "nonpayable",
      "type": "function"
    }
  ],
  "bytecode": "0x60806040526000600255660aa87bee5380006003553480156200002157600080fd5b5062000042620000366200006960201b60201c565b6200007160201b60201c565b60008060146101000a81548160ff0219169083151502179055506001808190555062000135565b600033905090565b60008060009054906101000a900473ffffffffffffffffffffffffffffffffffffffff169050816000806101000a81548173ffffffffffffffffffffffffffffffffffffffff021916908373ffffffffffffffffffffffffffffffffffffffff1602179055508173ffffffffffffffffffffffffffffffffffffffff168173ffffffffffffffffffffffffffffffffffffffff167f8be0079c531659141344cd1fd0a4f28419497f9722a3daafe3b4186f6b6457e060405160405180910390a35050565b61289480620001456000396000f3fe60806040526004361061011f5760003560e01c80638da5cb5b116100a0578063be22dd6511610064578063be22dd651461036e578063bf40fac1146103ab578063c16fe907146103e8578063e3d33fc91461042a578063f2fde38b146104555761011f565b80638da5cb5b146102715780639377d7111461029c578063963e63c7146102dd5780639b2ea4bd14610308578063bdfe7d47146103315761011f565b80634b30a6a1116100e75780634b30a6a1146101d15780634cee308a146101fc5780635c975abb14610218578063715018a6146102435780638456cb591461025a5761011f565b8063040e55f5146101245780631cce57aa1461014f5780632c48e7db1461017a5780633ccfd60b146101a35780633f4ba83a146101ba575b600080fd5b34801561013057600080fd5b5061013961047e565b6040516101469190612399565b60405180910390f35b34801561015b57600080fd5b50610164610488565b60405161017191906121c0565b60405180910390f35b34801561018657600080fd5b506101a1600480360381019061019c9190611c9f565b6104c5565b005b3480156101af57600080fd5b506101b8610821565b005b3480156101c657600080fd5b506101cf6109a1565b005b3480156101dd57600080fd5b506101e6610a27565b6040516101f39190612399565b60405180910390f35b61021660048036038101906102119190611c0a565b610a31565b005b34801561022457600080fd5b5061022d610fbe565b60405161023a91906121c0565b60405180910390f35b34801561024f57600080fd5b50610258610fd4565b005b34801561026657600080fd5b5061026f61105c565b005b34801561027d57600080fd5b506102866110e2565b60405161029391906121a5565b60405180910390f35b3480156102a857600080fd5b506102c360048036038101906102be9190611c9f565b61110b565b6040516102d49594939291906123b4565b60405180910390f35b3480156102e957600080fd5b506102f26111f6565b6040516102ff9190612399565b60405180910390f35b34801561031457600080fd5b5061032f600480360381019061032a9190611c4b565b6111fc565b005b34801561033d57600080fd5b5061035860048036038101906103539190611c0a565b6114ae565b60405161036591906121a5565b60405180910390f35b34801561037a57600080fd5b5061039560048036038101906103909190611be1565b6114f7565b6040516103a29190612399565b60405180910390f35b3480156103b757600080fd5b506103d260048036038101906103cd9190611c0a565b61150f565b6040516103df91906121a5565b60405180910390f35b3480156103f457600080fd5b5061040f600480360381019061040a9190611c9f565b6115a3565b6040516104219695949392919061240e565b60405180910390f35b34801561043657600080fd5b5061043f61179e565b60405161044c9190612399565b60405180910390f35b34801561046157600080fd5b5061047c60048036038101906104779190611be1565b6117a4565b005b6000600254905090565b60006104926110e2565b73ffffffffffffffffffffffffffffffffffffffff163373ffffffffffffffffffffffffffffffffffffffff1614905090565b6104cd61189c565b73ffffffffffffffffffffffffffffffffffffffff166104eb6110e2565b73ffffffffffffffffffffffffffffffffffffffff1614610541576040517f08c379a0000000000000000000000000000000000000000000000000000000008152600401610538906122d9565b60405180910390fd5b610549610fbe565b15610589576040517f08c379a000000000000000000000000000000000000000000000000000000000815260040161058090612299565b60405180910390fd5b8060006006600083815260200190815260200160002060010160009054906101000a900473ffffffffffffffffffffffffffffffffffffffff169050600073ffffffffffffffffffffffffffffffffffffffff168173ffffffffffffffffffffffffffffffffffffffff161415610635576040517f08c379a000000000000000000000000000000000000000000000000000000000815260040161062c906122b9565b60405180910390fd5b6006600084815260200190815260200160002060030160009054906101000a900460ff1660006001811115610693577f4e487b7100000000000000000000000000000000000000000000000000000000600052602160045260246000fd5b8160018111156106cc577f4e487b7100000000000000000000000000000000000000000000000000000000600052602160045260246000fd5b1461070c576040517f08c379a000000000000000000000000000000000000000000000000000000000815260040161070390612339565b60405180910390fd5b60016006600086815260200190815260200160002060030160006101000a81548160ff0219169083600181111561076c577f4e487b7100000000000000000000000000000000000000000000000000000000600052602160045260246000fd5b021790555060016005600060046006600089815260200190815260200160002060020160405161079c9190612179565b908152602001604051809103902060009054906101000a900473ffffffffffffffffffffffffffffffffffffffff1673ffffffffffffffffffffffffffffffffffffffff1673ffffffffffffffffffffffffffffffffffffffff16815260200190815260200160002060008282546108149190612628565b9250508190555050505050565b61082961189c565b73ffffffffffffffffffffffffffffffffffffffff166108476110e2565b73ffffffffffffffffffffffffffffffffffffffff161461089d576040517f08c379a0000000000000000000000000000000000000000000000000000000008152600401610894906122d9565b60405180910390fd5b600260015414156108e3576040517f08c379a00000000000000000000000000000000000000000000000000000000081526004016108da90612379565b60405180910390fd5b600260018190555060003373ffffffffffffffffffffffffffffffffffffffff164760405161091190612190565b60006040518083038185875af1925050503d806000811461094e576040519150601f19603f3d011682016040523d82523d6000602084013e610953565b606091505b5050905080610997576040517f08c379a000000000000000000000000000000000000000000000000000000000815260040161098e90612279565b60405180910390fd5b5060018081905550565b6109a961189c565b73ffffffffffffffffffffffffffffffffffffffff166109c76110e2565b73ffffffffffffffffffffffffffffffffffffffff1614610a1d576040517f08c379a0000000000000000000000000000000000000000000000000000000008152600401610a14906122d9565b60405180910390fd5b610a256118a4565b565b6000600354905090565b600354341015610a76576040517f08c379a0000000000000000000000000000000000000000000000000000000008152600401610a6d90612319565b60405180910390fd5b8060008190506003815114610ac0576040517f08c379a0000000000000000000000000000000000000000000000000000000008152600401610ab7906122f9565b60405180910390fd5b610ac8610fbe565b15610b08576040517f08c379a0000000000000000000000000000000000000000000000000000000008152600401610aff90612299565b60405180910390fd5b60026001541415610b4e576040517f08c379a0000000000000000000000000000000000000000000000000000000008152600401610b4590612379565b60405180910390fd5b6002600181905550600073ffffffffffffffffffffffffffffffffffffffff16600484604051610b7e9190612162565b908152602001604051809103902060009054906101000a900473ffffffffffffffffffffffffffffffffffffffff1673ffffffffffffffffffffffffffffffffffffffff161415610c04576040517f08c379a0000000000000000000000000000000000000000000000000000000008152600401610bfb90612239565b60405180910390fd5b600060035434610c149190612628565b90506040518060a0016040528060025481526020013373ffffffffffffffffffffffffffffffffffffffff16815260200185815260200160006001811115610c85577f4e487b7100000000000000000000000000000000000000000000000000000000600052602160045260246000fd5b8152602001828152506006600060025481526020019081526020016000206000820151816000015560208201518160010160006101000a81548173ffffffffffffffffffffffffffffffffffffffff021916908373ffffffffffffffffffffffffffffffffffffffff1602179055506040820151816002019080519060200190610d10929190611aac565b5060608201518160030160006101000a81548160ff02191690836001811115610d62577f4e487b7100000000000000000000000000000000000000000000000000000000600052602160045260246000fd5b021790555060808201518160040155905050600160056000600487604051610d8a9190612162565b908152602001604051809103902060009054906101000a900473ffffffffffffffffffffffffffffffffffffffff1673ffffffffffffffffffffffffffffffffffffffff1673ffffffffffffffffffffffffffffffffffffffff1681526020019081526020016000206000828254610e0291906125d2565b92505081905550600160026000828254610e1c91906125d2565b925050819055506000600485604051610e359190612162565b908152602001604051809103902060009054906101000a900473ffffffffffffffffffffffffffffffffffffffff1673ffffffffffffffffffffffffffffffffffffffff1682604051610e8790612190565b60006040518083038185875af1925050503d8060008114610ec4576040519150601f19603f3d011682016040523d82523d6000602084013e610ec9565b606091505b5050905080610f1e577f8677b57b8bb2cc7ee300f9aebe042b891a119b9949d3974d15f1f72b4fb3744d6001600254610f029190612628565b338785604051610f159493929190612476565b60405180910390a15b80610f5e576040517f08c379a0000000000000000000000000000000000000000000000000000000008152600401610f5590612279565b60405180910390fd5b7f6c7e0a6ecda086f3db70bd1293b039eb3aca113808ff54c4001d52546e1c96cb6001600254610f8e9190612628565b3387856000600354604051610fa8969594939291906124c2565b60405180910390a1505060018081905550505050565b60008060149054906101000a900460ff16905090565b610fdc61189c565b73ffffffffffffffffffffffffffffffffffffffff16610ffa6110e2565b73ffffffffffffffffffffffffffffffffffffffff1614611050576040517f08c379a0000000000000000000000000000000000000000000000000000000008152600401611047906122d9565b60405180910390fd5b61105a6000611945565b565b61106461189c565b73ffffffffffffffffffffffffffffffffffffffff166110826110e2565b73ffffffffffffffffffffffffffffffffffffffff16146110d8576040517f08c379a00000000000000000000000000000000000000000000000000000000081526004016110cf906122d9565b60405180910390fd5b6110e0611a09565b565b60008060009054906101000a900473ffffffffffffffffffffffffffffffffffffffff16905090565b60066020528060005260406000206000915090508060000154908060010160009054906101000a900473ffffffffffffffffffffffffffffffffffffffff169080600201805461115a9061271d565b80601f01602080910402602001604051908101604052809291908181526020018280546111869061271d565b80156111d35780601f106111a8576101008083540402835291602001916111d3565b820191906000526020600020905b8154815290600101906020018083116111b657829003601f168201915b5050505050908060030160009054906101000a900460ff16908060040154905085565b60035481565b61120461189c565b73ffffffffffffffffffffffffffffffffffffffff166112226110e2565b73ffffffffffffffffffffffffffffffffffffffff1614611278576040517f08c379a000000000000000000000000000000000000000000000000000000000815260040161126f906122d9565b60405180910390fd5b611280610fbe565b156112c0576040517f08c379a00000000000000000000000000000000000000000000000000000000081526004016112b790612299565b60405180910390fd5b816000819050600381511461130a576040517f08c379a0000000000000000000000000000000000000000000000000000000008152600401611301906122f9565b60405180910390fd5b836000600560006004846040516113219190612162565b908152602001604051809103902060009054906101000a900473ffffffffffffffffffffffffffffffffffffffff1673ffffffffffffffffffffffffffffffffffffffff1673ffffffffffffffffffffffffffffffffffffffff16815260200190815260200160002054146113cb576040517f08c379a00000000000000000000000000000000000000000000000000000000081526004016113c290612359565b60405180910390fd5b60006004866040516113dd9190612162565b908152602001604051809103902060009054906101000a900473ffffffffffffffffffffffffffffffffffffffff1690508460048760405161141f9190612162565b908152602001604051809103902060006101000a81548173ffffffffffffffffffffffffffffffffffffffff021916908373ffffffffffffffffffffffffffffffffffffffff1602179055507f0f15edfba3e3ed3e9cbe4671b9e294e309914a0165e592062c5e456b83baa69586828760405161149e939291906121db565b60405180910390a1505050505050565b6004818051602081018201805184825260208301602085012081835280955050505050506000915054906101000a900473ffffffffffffffffffffffffffffffffffffffff1681565b60056020528060005260406000206000915090505481565b6000816000819050600381511461155b576040517f08c379a0000000000000000000000000000000000000000000000000000000008152600401611552906122f9565b60405180910390fd5b60048460405161156b9190612162565b908152602001604051809103902060009054906101000a900473ffffffffffffffffffffffffffffffffffffffff1692505050919050565b600080606060008060008660006006600083815260200190815260200160002060010160009054906101000a900473ffffffffffffffffffffffffffffffffffffffff169050600073ffffffffffffffffffffffffffffffffffffffff168173ffffffffffffffffffffffffffffffffffffffff161415611659576040517f08c379a0000000000000000000000000000000000000000000000000000000008152600401611650906122b9565b60405180910390fd5b600660008a815260200190815260200160002060000154600660008b815260200190815260200160002060010160009054906101000a900473ffffffffffffffffffffffffffffffffffffffff16600660008c8152602001908152602001600020600201600660008d815260200190815260200160002060030160009054906101000a900460ff16600660008e8152602001908152602001600020600401546003548380546117079061271d565b80601f01602080910402602001604051908101604052809291908181526020018280546117339061271d565b80156117805780601f1061175557610100808354040283529160200191611780565b820191906000526020600020905b81548152906001019060200180831161176357829003601f168201915b50505050509350975097509750975097509750505091939550919395565b60025481565b6117ac61189c565b73ffffffffffffffffffffffffffffffffffffffff166117ca6110e2565b73ffffffffffffffffffffffffffffffffffffffff1614611820576040517f08c379a0000000000000000000000000000000000000000000000000000000008152600401611817906122d9565b60405180910390fd5b600073ffffffffffffffffffffffffffffffffffffffff168173ffffffffffffffffffffffffffffffffffffffff161415611890576040517f08c379a000000000000000000000000000000000000000000000000000000000815260040161188790612259565b60405180910390fd5b61189981611945565b50565b600033905090565b6118ac610fbe565b6118eb576040517f08c379a00000000000000000000000000000000000000000000000000000000081526004016118e290612219565b60405180910390fd5b60008060146101000a81548160ff0219169083151502179055507f5db9ee0a495bf2e6ff9c91a7834c1ba4fdd244a5e8aa4e537bd38aeae4b073aa61192e61189c565b60405161193b91906121a5565b60405180910390a1565b60008060009054906101000a900473ffffffffffffffffffffffffffffffffffffffff169050816000806101000a81548173ffffffffffffffffffffffffffffffffffffffff021916908373ffffffffffffffffffffffffffffffffffffffff1602179055508173ffffffffffffffffffffffffffffffffffffffff168173ffffffffffffffffffffffffffffffffffffffff167f8be0079c531659141344cd1fd0a4f28419497f9722a3daafe3b4186f6b6457e060405160405180910390a35050565b611a11610fbe565b15611a51576040517f08c379a0000000000000000000000000000000000000000000000000000000008152600401611a4890612299565b60405180910390fd5b6001600060146101000a81548160ff0219169083151502179055507f62e78cea01bee320cd4e420270b5ea74000d11b0c9f74754ebdbfc544b05a258611a9561189c565b604051611aa291906121a5565b60405180910390a1565b828054611ab89061271d565b90600052602060002090601f016020900481019282611ada5760008555611b21565b82601f10611af357805160ff1916838001178555611b21565b82800160010185558215611b21579182015b82811115611b20578251825591602001919060010190611b05565b5b509050611b2e9190611b32565b5090565b5b80821115611b4b576000816000905550600101611b33565b5090565b6000611b62611b5d8461255b565b61252a565b905082815260208101848484011115611b7a57600080fd5b611b858482856126db565b509392505050565b600081359050611b9c81612830565b92915050565b600082601f830112611bb357600080fd5b8135611bc3848260208601611b4f565b91505092915050565b600081359050611bdb81612847565b92915050565b600060208284031215611bf357600080fd5b6000611c0184828501611b8d565b91505092915050565b600060208284031215611c1c57600080fd5b600082013567ffffffffffffffff811115611c3657600080fd5b611c4284828501611ba2565b91505092915050565b60008060408385031215611c5e57600080fd5b600083013567ffffffffffffffff811115611c7857600080fd5b611c8485828601611ba2565b9250506020611c9585828601611b8d565b9150509250929050565b600060208284031215611cb157600080fd5b6000611cbf84828501611bcc565b91505092915050565b611cd18161266e565b82525050565b611ce08161265c565b82525050565b611cef81612680565b82525050565b611cfe816126c9565b82525050565b6000611d0f826125a0565b611d1981856125b6565b9350611d298185602086016126ea565b611d328161280b565b840191505092915050565b6000611d48826125a0565b611d5281856125c7565b9350611d628185602086016126ea565b80840191505092915050565b60008154611d7b8161271d565b611d8581866125c7565b94506001821660008114611da05760018114611db157611de4565b60ff19831686528186019350611de4565b611dba8561258b565b60005b83811015611ddc57815481890152600182019150602081019050611dbd565b838801955050505b50505092915050565b6000611dfa6014836125b6565b91507f5061757361626c653a206e6f74207061757365640000000000000000000000006000830152602082019050919050565b6000611e3a600f836125b6565b91507f496e76616c6964206164647265737300000000000000000000000000000000006000830152602082019050919050565b6000611e7a6026836125b6565b91507f4f776e61626c653a206e6577206f776e657220697320746865207a65726f206160008301527f64647265737300000000000000000000000000000000000000000000000000006020830152604082019050919050565b6000611ee06014836125b6565b91507f4661696c656420746f2073656e642045746865720000000000000000000000006000830152602082019050919050565b6000611f206010836125b6565b91507f5061757361626c653a20706175736564000000000000000000000000000000006000830152602082019050919050565b6000611f606018836125b6565b91507f5472616e7366657220646f6573206e6f742065786973742100000000000000006000830152602082019050919050565b6000611fa06020836125b6565b91507f4f776e61626c653a2063616c6c6572206973206e6f7420746865206f776e65726000830152602082019050919050565b6000611fe06015836125b6565b91507f496e76616c696420636f756e74727920636f64652100000000000000000000006000830152602082019050919050565b60006120206015836125b6565b91507f496e73756666696369656e7420616d6d6f756e742100000000000000000000006000830152602082019050919050565b6000612060601e836125b6565b91507f5472616e7366657220697320616c726561647920636f6e6669726d65642100006000830152602082019050919050565b60006120a06000836125ab565b9150600082019050919050565b60006120ba6036836125b6565b91507f546865726520617265207374696c6c20756e636f6e6669726d6564207472616e60008301527f73666572732061742074686973206164647265737321000000000000000000006020830152604082019050919050565b6000612120601f836125b6565b91507f5265656e7472616e637947756172643a207265656e7472616e742063616c6c006000830152602082019050919050565b61215c816126bf565b82525050565b600061216e8284611d3d565b915081905092915050565b60006121858284611d6e565b915081905092915050565b600061219b82612093565b9150819050919050565b60006020820190506121ba6000830184611cd7565b92915050565b60006020820190506121d56000830184611ce6565b92915050565b600060608201905081810360008301526121f58186611d04565b90506122046020830185611cd7565b6122116040830184611cd7565b949350505050565b6000602082019050818103600083015261223281611ded565b9050919050565b6000602082019050818103600083015261225281611e2d565b9050919050565b6000602082019050818103600083015261227281611e6d565b9050919050565b6000602082019050818103600083015261229281611ed3565b9050919050565b600060208201905081810360008301526122b281611f13565b9050919050565b600060208201905081810360008301526122d281611f53565b9050919050565b600060208201905081810360008301526122f281611f93565b9050919050565b6000602082019050818103600083015261231281611fd3565b9050919050565b6000602082019050818103600083015261233281612013565b9050919050565b6000602082019050818103600083015261235281612053565b9050919050565b60006020820190508181036000830152612372816120ad565b9050919050565b6000602082019050818103600083015261239281612113565b9050919050565b60006020820190506123ae6000830184612153565b92915050565b600060a0820190506123c96000830188612153565b6123d66020830187611cc8565b81810360408301526123e88186611d04565b90506123f76060830185611cf5565b6124046080830184612153565b9695505050505050565b600060c0820190506124236000830189612153565b6124306020830188611cd7565b81810360408301526124428187611d04565b90506124516060830186611cf5565b61245e6080830185612153565b61246b60a0830184612153565b979650505050505050565b600060808201905061248b6000830187612153565b6124986020830186611cd7565b81810360408301526124aa8185611d04565b90506124b96060830184612153565b95945050505050565b600060c0820190506124d76000830189612153565b6124e46020830188611cd7565b81810360408301526124f68187611d04565b90506125056060830186612153565b6125126080830185611cf5565b61251f60a0830184612153565b979650505050505050565b6000604051905081810181811067ffffffffffffffff82111715612551576125506127dc565b5b8060405250919050565b600067ffffffffffffffff821115612576576125756127dc565b5b601f19601f8301169050602081019050919050565b60008190508160005260206000209050919050565b600081519050919050565b600081905092915050565b600082825260208201905092915050565b600081905092915050565b60006125dd826126bf565b91506125e8836126bf565b9250827fffffffffffffffffffffffffffffffffffffffffffffffffffffffffffffffff0382111561261d5761261c61274f565b5b828201905092915050565b6000612633826126bf565b915061263e836126bf565b9250828210156126515761265061274f565b5b828203905092915050565b60006126678261269f565b9050919050565b60006126798261269f565b9050919050565b60008115159050919050565b600081905061269a8261281c565b919050565b600073ffffffffffffffffffffffffffffffffffffffff82169050919050565b6000819050919050565b60006126d48261268c565b9050919050565b82818337600083830152505050565b60005b838110156127085780820151818401526020810190506126ed565b83811115612717576000848401525b50505050565b6000600282049050600182168061273557607f821691505b60208210811415612749576127486127ad565b5b50919050565b7f4e487b7100000000000000000000000000000000000000000000000000000000600052601160045260246000fd5b7f4e487b7100000000000000000000000000000000000000000000000000000000600052602160045260246000fd5b7f4e487b7100000000000000000000000000000000000000000000000000000000600052602260045260246000fd5b7f4e487b7100000000000000000000000000000000000000000000000000000000600052604160045260246000fd5b6000601f19601f8301169050919050565b6002811061282d5761282c61277e565b5b50565b6128398161265c565b811461284457600080fd5b50565b612850816126bf565b811461285b57600080fd5b5056fea2646970667358221220c175a1c2f95dfdbda2a1d6880d7befaa7c7b36435c7e3f5043ed4e2372f24de864736f6c63430008000033",
  "immutableReferences": {},
  "source": "// SPDX-License-Identifier: MIT\npragma solidity ^0.8.0;\nimport \"@openzeppelin/contracts/access/Ownable.sol\";\nimport \"@openzeppelin/contracts/security/Pausable.sol\";\nimport \"@openzeppelin/contracts/security/ReentrancyGuard.sol\";\n\n/// @title Crypto Union Contract\n/// @author Nikki Nikolenko\n/// @notice You can use this contract to transfer money to another address associated with a given country\n/// @dev Only ETH transfers are supported for now\ncontract CryptoUnion is Ownable, Pausable, ReentrancyGuard {\n    //transfer id\n    uint256 public transferCount = 0;\n\n    //the initator needs to send > minValue for the transaction to go through\n    uint256 public minValue = 3e15;\n\n    //contry code (3 chars max) -> address mapping\n    mapping(string => address) public addresses;\n\n    //wallet address -> count of pending transfers mapping\n    mapping(address => uint256) public pendingTransfers;\n\n    // transfer id -> Transfer mapping\n    mapping(uint256 => Transfer) public transfers;\n\n    /// @notice Status enum which can either be \"Sent\" or \"Confirmed\"\n    enum Status {\n        Sent,\n        Confirmed\n    }\n\n    /// @notice Transfer struct that captures all the necessary information about a transafer\n    struct Transfer {\n        uint256 transferId;\n        address payable from;\n        string to; //country code of the recepient\n        Status status;\n        uint256 amount;\n    }\n\n    /*\n     * Events\n     */\n    /// @notice Emitted after successful address update for country code -> address pair\n    /// @param countryCode Three-letter country code, e.g. BHS\n    /// @param oldWallet An old address associated with the country code\n    /// @param newWallet A new address associated with the country code\n    event LogCountryAddressUpdated(\n        string countryCode,\n        address oldWallet,\n        address newWallet\n    );\n\n    /// @notice Emitted after we have successfully sent the money to an address associated with a given country\n    /// @param transferId id of the transfer, can be used to view the transfer later\n    /// @param from Sender's address\n    /// @param to Three-letter country code, e.g. BHS\n    /// @param amount Amount transferred (msg.value - contract fee)\n    /// @param status Status of the transfer\n    /// @param contractFee contract fee\n    event LogTransferSent(\n        uint256 transferId,\n        address from,\n        string to,\n        uint256 amount,\n        Status status,\n        uint256 contractFee\n    );\n\n    /// @notice Emitted if the send money call failed\n    /// @param transferId id of the transfer, can be used to view the transfer later\n    /// @param from Sender's address\n    /// @param to Three-letter country code, e.g. BHS\n    /// @param amount Amount transferred (msg.value - contract fee)\n    event LogTransferFailed(\n        uint256 transferId,\n        address from,\n        string to,\n        uint256 amount\n    );\n    /*\n     * Modifiers\n     */\n\n    /// @notice Validate the given country code\n    /// @dev Inputs longer than three English letters will be rejected\n    /// @param countryCode Three-letter country code, e.g. BHS\n    modifier validCountryCode(string memory countryCode) {\n        bytes memory tempEmptyStringTest = bytes(countryCode);\n        require(tempEmptyStringTest.length == 3, \"Invalid country code!\");\n        _;\n    }\n\n    /// @notice Validate that the sender has send more ETH than the contract fee\n    modifier paidEnough() {\n        require(msg.value >= minValue, \"Insufficient ammount!\");\n        _;\n    }\n\n    /// @notice Validate that the transfer status is not Confirmed\n    /// @param status The transfer status\n    modifier checkStatus(Status status) {\n        require(status == Status.Sent, \"Transfer is already confirmed!\");\n        _;\n    }\n\n    /// @notice Validate that there are no pending transfers for a given country code\n    /// @param countryCode Three-letter country code, e.g. BHS\n    modifier noPendingTransfers(string memory countryCode) {\n        require(\n            pendingTransfers[addresses[countryCode]] == 0,\n            \"There are still unconfirmed transfers at this address!\"\n        );\n        _;\n    }\n\n    /// @notice Validate that the transfer with a given transfer id exists\n    /// @param _transferId Transfer id\n    modifier transferExists(uint256 _transferId) {\n        address from = transfers[_transferId].from;\n        require(from != address(0), \"Transfer does not exist!\");\n        _;\n    }\n\n    /// @notice Checks if the transaction was sent by the contract owner\n    /// @dev Used for admin sign-in in the web UI\n    /// @return true if the sender address belongs to contract owner, false otherwise.\n    function adminSignIn() public view returns (bool) {\n        return msg.sender == owner();\n    }\n\n    /// @notice Set the country code -> address pair\n    /// @dev Also allows you to delete supported country codes by setting the wallet to address to 0\n    /// @param countryCode Three-letter country code, e.g. BHS\n    /// @param wallet Wallet address corresponding to the country code\n    function setAddress(string memory countryCode, address wallet)\n        public\n        onlyOwner\n        whenNotPaused\n        validCountryCode(countryCode)\n        noPendingTransfers(countryCode)\n    {\n        address oldWallet = addresses[countryCode];\n        addresses[countryCode] = wallet;\n        emit LogCountryAddressUpdated(countryCode, oldWallet, wallet);\n    }\n\n    /// @notice Get an address corresponding to a give country code\n    /// @dev Inputs longer than three English letters will be rejected\n    /// @param countryCode Three-letter country code, e.g. BHS\n    /// @return address corresponding the country code\n    function getAddress(string memory countryCode)\n        public\n        view\n        validCountryCode(countryCode)\n        returns (address)\n    {\n        return addresses[countryCode];\n    }\n\n    /// @notice Get the contract fee\n    /// @return contract fee\n    function getMinValue() public view returns (uint256) {\n        return minValue;\n    }\n\n    /// @notice Get transfer count\n    /// @return transfer count\n    function getTransferCount() public view returns (uint256) {\n        return transferCount;\n    }\n\n    /// @notice Send ETH to a given country, contract fee will be withheld\n    /// @dev If we are unable to perform the send the whole transaction is reverted\n    /// @param countryCode Three-letter country code, e.g. BHS\n    function sendEthToCountry(string memory countryCode)\n        public\n        payable\n        paidEnough\n        validCountryCode(countryCode)\n        whenNotPaused\n        nonReentrant\n    {\n        // Here are the approximate steps:\n        // 1. Create a transfer - need to figure out how much the contract should charge for the service\n        if (addresses[countryCode] == address(0)) {\n            revert(\"Invalid address\");\n        }\n        uint256 amount = msg.value - minValue;\n        transfers[transferCount] = Transfer(\n            transferCount,\n            payable(msg.sender),\n            countryCode,\n            Status.Sent,\n            amount\n        );\n        pendingTransfers[addresses[countryCode]] += 1;\n        transferCount += 1;\n        // 2. Try to send money to addresses[countryCode]\n        (bool sent, ) = addresses[countryCode].call{value: amount}(\"\");\n        if (!sent) {\n            emit LogTransferFailed(\n                transferCount - 1,\n                msg.sender,\n                countryCode,\n                amount\n            );\n        }\n        // defending afainst https://swcregistry.io/docs/SWC-104\n        require(sent, \"Failed to send Ether\");\n        // 3. If success, change the status to Sent\n        emit LogTransferSent(\n            transferCount - 1,\n            msg.sender,\n            countryCode,\n            amount,\n            Status.Sent,\n            minValue\n        );\n    }\n\n    /// @notice Get information about a given trasfer\n    /// @param _transferId transfer id\n    /// @return transfer information: transfer id, from - address of the sender, to - receiving country code, status - status of the transfer, amount transferred (in ETH), contract fee\n    function getTransfer(uint256 _transferId)\n        public\n        view\n        transferExists(_transferId)\n        returns (\n            uint256,\n            address,\n            string memory,\n            Status,\n            uint256,\n            uint256\n        )\n    {\n        return (\n            transfers[_transferId].transferId,\n            transfers[_transferId].from,\n            transfers[_transferId].to,\n            transfers[_transferId].status,\n            transfers[_transferId].amount,\n            minValue\n        );\n    }\n\n    /// @notice Confirm a given transfer, should be done after Admin has transferred the money to the recepient off-chain\n    /// @param _transferId transfer id\n    function confirmTransfer(uint256 _transferId)\n        public\n        onlyOwner\n        whenNotPaused\n        transferExists(_transferId)\n        checkStatus(transfers[_transferId].status)\n    {\n        transfers[_transferId].status = Status.Confirmed;\n        pendingTransfers[addresses[transfers[_transferId].to]] -= 1;\n    }\n\n    /// @notice Withdraw contract's balance to the owner's address\n    /// @dev The function will revert if the send wasn't successful\n    function withdraw() public onlyOwner nonReentrant {\n        (bool sent, ) = msg.sender.call{value: address(this).balance}(\"\");\n        require(sent, \"Failed to send Ether\");\n    }\n\n    /// @notice pause the contract -- the contract will start functioning in read-only mode.\n    /// @dev Implementing the circuit breaker pattern\n    function pause() public onlyOwner {\n        Pausable._pause();\n    }\n\n    /// @notice resume the contract for both reads and writes\n    /// @dev Implementing the circuit breaker pattern\n    function unpause() public onlyOwner {\n        Pausable._unpause();\n    }\n}\n",
  "sourcePath": "/Users/liubov/Desktop/blockchain-developer-bootcamp-final-project/contracts/CryptoUnion.sol",
  "compiler": {
    "name": "solc",
    "version": "0.8.0+commit.c7dfd78e.Emscripten.clang"
  },
  "schemaVersion": "3.4.3",
  "updatedAt": "2021-11-28T02:59:04.372Z",
  "networkType": "ethereum",
  "devdoc": {
    "author": "Nikki Nikolenko",
    "details": "Only ETH transfers are supported for now",
    "events": {
      "LogCountryAddressUpdated(string,address,address)": {
        "params": {
          "countryCode": "Three-letter country code, e.g. BHS",
          "newWallet": "A new address associated with the country code",
          "oldWallet": "An old address associated with the country code"
        }
      },
      "LogTransferFailed(uint256,address,string,uint256)": {
        "params": {
          "amount": "Amount transferred (msg.value - contract fee)",
          "from": "Sender's address",
          "to": "Three-letter country code, e.g. BHS",
          "transferId": "id of the transfer, can be used to view the transfer later"
        }
      },
      "LogTransferSent(uint256,address,string,uint256,uint8,uint256)": {
        "params": {
          "amount": "Amount transferred (msg.value - contract fee)",
          "contractFee": "contract fee",
          "from": "Sender's address",
          "status": "Status of the transfer",
          "to": "Three-letter country code, e.g. BHS",
          "transferId": "id of the transfer, can be used to view the transfer later"
        }
      }
    },
    "kind": "dev",
    "methods": {
      "adminSignIn()": {
        "details": "Used for admin sign-in in the web UI",
        "returns": {
          "_0": "true if the sender address belongs to contract owner, false otherwise."
        }
      },
      "confirmTransfer(uint256)": {
        "params": {
          "_transferId": "transfer id"
        }
      },
      "getAddress(string)": {
        "details": "Inputs longer than three English letters will be rejected",
        "params": {
          "countryCode": "Three-letter country code, e.g. BHS"
        },
        "returns": {
          "_0": "address corresponding the country code"
        }
      },
      "getMinValue()": {
        "returns": {
          "_0": "contract fee"
        }
      },
      "getTransfer(uint256)": {
        "params": {
          "_transferId": "transfer id"
        },
        "returns": {
          "_0": "transfer information: transfer id, from - address of the sender, to - receiving country code, status - status of the transfer, amount transferred (in ETH), contract fee"
        }
      },
      "getTransferCount()": {
        "returns": {
          "_0": "transfer count"
        }
      },
      "owner()": {
        "details": "Returns the address of the current owner."
      },
      "pause()": {
        "details": "Implementing the circuit breaker pattern"
      },
      "paused()": {
        "details": "Returns true if the contract is paused, and false otherwise."
      },
      "renounceOwnership()": {
        "details": "Leaves the contract without owner. It will not be possible to call `onlyOwner` functions anymore. Can only be called by the current owner. NOTE: Renouncing ownership will leave the contract without an owner, thereby removing any functionality that is only available to the owner."
      },
      "sendEthToCountry(string)": {
        "details": "If we are unable to perform the send the whole transaction is reverted",
        "params": {
          "countryCode": "Three-letter country code, e.g. BHS"
        }
      },
      "setAddress(string,address)": {
        "details": "Also allows you to delete supported country codes by setting the wallet to address to 0",
        "params": {
          "countryCode": "Three-letter country code, e.g. BHS",
          "wallet": "Wallet address corresponding to the country code"
        }
      },
      "transferOwnership(address)": {
        "details": "Transfers ownership of the contract to a new account (`newOwner`). Can only be called by the current owner."
      },
      "unpause()": {
        "details": "Implementing the circuit breaker pattern"
      },
      "withdraw()": {
        "details": "The function will revert if the send wasn't successful"
      }
    },
    "title": "Crypto Union Contract",
    "version": 1
  },
  "userdoc": {
    "events": {
      "LogCountryAddressUpdated(string,address,address)": {
        "notice": "Emitted after successful address update for country code -> address pair"
      },
      "LogTransferFailed(uint256,address,string,uint256)": {
        "notice": "Emitted if the send money call failed"
      },
      "LogTransferSent(uint256,address,string,uint256,uint8,uint256)": {
        "notice": "Emitted after we have successfully sent the money to an address associated with a given country"
      }
    },
    "kind": "user",
    "methods": {
      "adminSignIn()": {
        "notice": "Checks if the transaction was sent by the contract owner"
      },
      "confirmTransfer(uint256)": {
        "notice": "Confirm a given transfer, should be done after Admin has transferred the money to the recepient off-chain"
      },
      "getAddress(string)": {
        "notice": "Get an address corresponding to a give country code"
      },
      "getMinValue()": {
        "notice": "Get the contract fee"
      },
      "getTransfer(uint256)": {
        "notice": "Get information about a given trasfer"
      },
      "getTransferCount()": {
        "notice": "Get transfer count"
      },
      "pause()": {
        "notice": "pause the contract -- the contract will start functioning in read-only mode."
      },
      "sendEthToCountry(string)": {
        "notice": "Send ETH to a given country, contract fee will be withheld"
      },
      "setAddress(string,address)": {
        "notice": "Set the country code -> address pair"
      },
      "unpause()": {
        "notice": "resume the contract for both reads and writes"
      },
      "withdraw()": {
        "notice": "Withdraw contract's balance to the owner's address"
      }
    },
    "notice": "You can use this contract to transfer money to another address associated with a given country",
    "version": 1
  }
}