{
  "contractName": "CryptoUnion",
  "abi": [
    {
      "anonymous": false,
      "inputs": [
        {
          "indexed": false,
          "internalType": "string",
          "name": "countryCode",
          "type": "string"
        },
        {
          "indexed": false,
          "internalType": "address",
          "name": "oldWallet",
          "type": "address"
        },
        {
          "indexed": false,
          "internalType": "address",
          "name": "newWallet",
          "type": "address"
        }
      ],
      "name": "LogCountryAddressUpdated",
      "type": "event"
    },
    {
      "anonymous": false,
      "inputs": [
        {
          "indexed": false,
          "internalType": "uint256",
          "name": "transferId",
          "type": "uint256"
        },
        {
          "indexed": false,
          "internalType": "address",
          "name": "from",
          "type": "address"
        },
        {
          "indexed": false,
          "internalType": "string",
          "name": "to",
          "type": "string"
        },
        {
          "indexed": false,
          "internalType": "uint256",
          "name": "amount",
          "type": "uint256"
        }
      ],
      "name": "LogTransferFailed",
      "type": "event"
    },
    {
      "anonymous": false,
      "inputs": [
        {
          "indexed": false,
          "internalType": "uint256",
          "name": "transferId",
          "type": "uint256"
        },
        {
          "indexed": false,
          "internalType": "address",
          "name": "from",
          "type": "address"
        },
        {
          "indexed": false,
          "internalType": "string",
          "name": "to",
          "type": "string"
        },
        {
          "indexed": false,
          "internalType": "uint256",
          "name": "amount",
          "type": "uint256"
        },
        {
          "indexed": false,
          "internalType": "enum CryptoUnion.Status",
          "name": "status",
          "type": "uint8"
        },
        {
          "indexed": false,
          "internalType": "uint256",
          "name": "contractFee",
          "type": "uint256"
        }
      ],
      "name": "LogTransferSent",
      "type": "event"
    },
    {
      "anonymous": false,
      "inputs": [
        {
          "indexed": true,
          "internalType": "address",
          "name": "previousOwner",
          "type": "address"
        },
        {
          "indexed": true,
          "internalType": "address",
          "name": "newOwner",
          "type": "address"
        }
      ],
      "name": "OwnershipTransferred",
      "type": "event"
    },
    {
      "anonymous": false,
      "inputs": [
        {
          "indexed": false,
          "internalType": "address",
          "name": "account",
          "type": "address"
        }
      ],
      "name": "Paused",
      "type": "event"
    },
    {
      "anonymous": false,
      "inputs": [
        {
          "indexed": false,
          "internalType": "address",
          "name": "account",
          "type": "address"
        }
      ],
      "name": "Unpaused",
      "type": "event"
    },
    {
      "inputs": [
        {
          "internalType": "string",
          "name": "",
          "type": "string"
        }
      ],
      "name": "addresses",
      "outputs": [
        {
          "internalType": "address",
          "name": "",
          "type": "address"
        }
      ],
      "stateMutability": "view",
      "type": "function"
    },
    {
      "inputs": [],
      "name": "minValue",
      "outputs": [
        {
          "internalType": "uint256",
          "name": "",
          "type": "uint256"
        }
      ],
      "stateMutability": "view",
      "type": "function"
    },
    {
      "inputs": [],
      "name": "owner",
      "outputs": [
        {
          "internalType": "address",
          "name": "",
          "type": "address"
        }
      ],
      "stateMutability": "view",
      "type": "function"
    },
    {
      "inputs": [],
      "name": "paused",
      "outputs": [
        {
          "internalType": "bool",
          "name": "",
          "type": "bool"
        }
      ],
      "stateMutability": "view",
      "type": "function"
    },
    {
      "inputs": [
        {
          "internalType": "address",
          "name": "",
          "type": "address"
        }
      ],
      "name": "pendingTransfers",
      "outputs": [
        {
          "internalType": "uint256",
          "name": "",
          "type": "uint256"
        }
      ],
      "stateMutability": "view",
      "type": "function"
    },
    {
      "inputs": [],
      "name": "renounceOwnership",
      "outputs": [],
      "stateMutability": "nonpayable",
      "type": "function"
    },
    {
      "inputs": [],
      "name": "transferCount",
      "outputs": [
        {
          "internalType": "uint256",
          "name": "",
          "type": "uint256"
        }
      ],
      "stateMutability": "view",
      "type": "function"
    },
    {
      "inputs": [],
      "name": "transferCount1",
      "outputs": [
        {
          "internalType": "uint256",
          "name": "",
          "type": "uint256"
        }
      ],
      "stateMutability": "view",
      "type": "function"
    },
    {
      "inputs": [
        {
          "internalType": "address",
          "name": "newOwner",
          "type": "address"
        }
      ],
      "name": "transferOwnership",
      "outputs": [],
      "stateMutability": "nonpayable",
      "type": "function"
    },
    {
      "inputs": [
        {
          "internalType": "uint256",
          "name": "",
          "type": "uint256"
        }
      ],
      "name": "transfers",
      "outputs": [
        {
          "internalType": "uint256",
          "name": "transferId",
          "type": "uint256"
        },
        {
          "internalType": "address payable",
          "name": "from",
          "type": "address"
        },
        {
          "internalType": "string",
          "name": "to",
          "type": "string"
        },
        {
          "internalType": "enum CryptoUnion.Status",
          "name": "status",
          "type": "uint8"
        },
        {
          "internalType": "uint256",
          "name": "amount",
          "type": "uint256"
        }
      ],
      "stateMutability": "view",
      "type": "function"
    },
    {
      "inputs": [],
      "name": "adminSignIn",
      "outputs": [
        {
          "internalType": "bool",
          "name": "",
          "type": "bool"
        }
      ],
      "stateMutability": "view",
      "type": "function"
    },
    {
      "inputs": [
        {
          "internalType": "string",
          "name": "countryCode",
          "type": "string"
        },
        {
          "internalType": "address",
          "name": "wallet",
          "type": "address"
        }
      ],
      "name": "setAddress",
      "outputs": [],
      "stateMutability": "nonpayable",
      "type": "function"
    },
    {
      "inputs": [
        {
          "internalType": "string",
          "name": "countryCode",
          "type": "string"
        }
      ],
      "name": "getAddress",
      "outputs": [
        {
          "internalType": "address",
          "name": "",
          "type": "address"
        }
      ],
      "stateMutability": "view",
      "type": "function"
    },
    {
      "inputs": [],
      "name": "getMinValue",
      "outputs": [
        {
          "internalType": "uint256",
          "name": "",
          "type": "uint256"
        }
      ],
      "stateMutability": "view",
      "type": "function"
    },
    {
      "inputs": [],
      "name": "getTransferCount",
      "outputs": [
        {
          "internalType": "uint256",
          "name": "",
          "type": "uint256"
        }
      ],
      "stateMutability": "view",
      "type": "function"
    },
    {
      "inputs": [
        {
          "internalType": "string",
          "name": "countryCode",
          "type": "string"
        }
      ],
      "name": "sendEthToCountry",
      "outputs": [],
      "stateMutability": "payable",
      "type": "function"
    },
    {
      "inputs": [
        {
          "internalType": "uint256",
          "name": "_transferId",
          "type": "uint256"
        }
      ],
      "name": "getTransfer",
      "outputs": [
        {
          "internalType": "uint256",
          "name": "",
          "type": "uint256"
        },
        {
          "internalType": "address",
          "name": "",
          "type": "address"
        },
        {
          "internalType": "string",
          "name": "",
          "type": "string"
        },
        {
          "internalType": "enum CryptoUnion.Status",
          "name": "",
          "type": "uint8"
        },
        {
          "internalType": "uint256",
          "name": "",
          "type": "uint256"
        },
        {
          "internalType": "uint256",
          "name": "",
          "type": "uint256"
        }
      ],
      "stateMutability": "view",
      "type": "function"
    },
    {
      "inputs": [
        {
          "internalType": "uint256",
          "name": "_transferId",
          "type": "uint256"
        }
      ],
      "name": "confirmTransfer",
      "outputs": [],
      "stateMutability": "nonpayable",
      "type": "function"
    },
    {
      "inputs": [],
      "name": "withdraw",
      "outputs": [],
      "stateMutability": "nonpayable",
      "type": "function"
    },
    {
      "inputs": [],
      "name": "pause",
      "outputs": [],
      "stateMutability": "nonpayable",
      "type": "function"
    },
    {
      "inputs": [],
      "name": "unpause",
      "outputs": [],
      "stateMutability": "nonpayable",
      "type": "function"
    }
  ],
  "bytecode": "0x608060405260006001556000600255660aa87bee5380006003553480156200002657600080fd5b50620000476200003b6200006760201b60201c565b6200006f60201b60201c565b60008060146101000a81548160ff02191690831515021790555062000133565b600033905090565b60008060009054906101000a900473ffffffffffffffffffffffffffffffffffffffff169050816000806101000a81548173ffffffffffffffffffffffffffffffffffffffff021916908373ffffffffffffffffffffffffffffffffffffffff1602179055508173ffffffffffffffffffffffffffffffffffffffff168173ffffffffffffffffffffffffffffffffffffffff167f8be0079c531659141344cd1fd0a4f28419497f9722a3daafe3b4186f6b6457e060405160405180910390a35050565b6127c380620001436000396000f3fe60806040526004361061012a5760003560e01c80638456cb59116100ab578063bdfe7d471161006f578063bdfe7d4714610367578063be22dd65146103a4578063bf40fac1146103e1578063c16fe9071461041e578063e3d33fc914610460578063f2fde38b1461048b5761012a565b80638456cb59146102905780638da5cb5b146102a75780639377d711146102d2578063963e63c7146103135780639b2ea4bd1461033e5761012a565b80633f4ba83a116100f25780633f4ba83a146101f05780634b30a6a1146102075780634cee308a146102325780635c975abb1461024e578063715018a6146102795761012a565b8063040e55f51461012f5780631cce57aa1461015a5780632c48e7db146101855780633665ac59146101ae5780633ccfd60b146101d9575b600080fd5b34801561013b57600080fd5b506101446104b4565b60405161015191906122c8565b60405180910390f35b34801561016657600080fd5b5061016f6104be565b60405161017c919061210f565b60405180910390f35b34801561019157600080fd5b506101ac60048036038101906101a79190611c2e565b6104fb565b005b3480156101ba57600080fd5b506101c3610857565b6040516101d091906122c8565b60405180910390f35b3480156101e557600080fd5b506101ee61085d565b005b3480156101fc57600080fd5b50610205610988565b005b34801561021357600080fd5b5061021c610a0e565b60405161022991906122c8565b60405180910390f35b61024c60048036038101906102479190611b99565b610a18565b005b34801561025a57600080fd5b50610263610f4d565b604051610270919061210f565b60405180910390f35b34801561028557600080fd5b5061028e610f63565b005b34801561029c57600080fd5b506102a5610feb565b005b3480156102b357600080fd5b506102bc611071565b6040516102c991906120f4565b60405180910390f35b3480156102de57600080fd5b506102f960048036038101906102f49190611c2e565b61109a565b60405161030a9594939291906122e3565b60405180910390f35b34801561031f57600080fd5b50610328611185565b60405161033591906122c8565b60405180910390f35b34801561034a57600080fd5b5061036560048036038101906103609190611bda565b61118b565b005b34801561037357600080fd5b5061038e60048036038101906103899190611b99565b61143d565b60405161039b91906120f4565b60405180910390f35b3480156103b057600080fd5b506103cb60048036038101906103c69190611b70565b611486565b6040516103d891906122c8565b60405180910390f35b3480156103ed57600080fd5b5061040860048036038101906104039190611b99565b61149e565b60405161041591906120f4565b60405180910390f35b34801561042a57600080fd5b5061044560048036038101906104409190611c2e565b611532565b6040516104579695949392919061233d565b60405180910390f35b34801561046c57600080fd5b5061047561172d565b60405161048291906122c8565b60405180910390f35b34801561049757600080fd5b506104b260048036038101906104ad9190611b70565b611733565b005b6000600154905090565b60006104c8611071565b73ffffffffffffffffffffffffffffffffffffffff163373ffffffffffffffffffffffffffffffffffffffff1614905090565b61050361182b565b73ffffffffffffffffffffffffffffffffffffffff16610521611071565b73ffffffffffffffffffffffffffffffffffffffff1614610577576040517f08c379a000000000000000000000000000000000000000000000000000000000815260040161056e90612228565b60405180910390fd5b61057f610f4d565b156105bf576040517f08c379a00000000000000000000000000000000000000000000000000000000081526004016105b6906121e8565b60405180910390fd5b8060006006600083815260200190815260200160002060010160009054906101000a900473ffffffffffffffffffffffffffffffffffffffff169050600073ffffffffffffffffffffffffffffffffffffffff168173ffffffffffffffffffffffffffffffffffffffff16141561066b576040517f08c379a000000000000000000000000000000000000000000000000000000000815260040161066290612208565b60405180910390fd5b6006600084815260200190815260200160002060030160009054906101000a900460ff16600060018111156106c9577f4e487b7100000000000000000000000000000000000000000000000000000000600052602160045260246000fd5b816001811115610702577f4e487b7100000000000000000000000000000000000000000000000000000000600052602160045260246000fd5b14610742576040517f08c379a000000000000000000000000000000000000000000000000000000000815260040161073990612288565b60405180910390fd5b60016006600086815260200190815260200160002060030160006101000a81548160ff021916908360018111156107a2577f4e487b7100000000000000000000000000000000000000000000000000000000600052602160045260246000fd5b02179055506001600560006004600660008981526020019081526020016000206002016040516107d291906120c8565b908152602001604051809103902060009054906101000a900473ffffffffffffffffffffffffffffffffffffffff1673ffffffffffffffffffffffffffffffffffffffff1673ffffffffffffffffffffffffffffffffffffffff168152602001908152602001600020600082825461084a9190612557565b9250508190555050505050565b60025481565b61086561182b565b73ffffffffffffffffffffffffffffffffffffffff16610883611071565b73ffffffffffffffffffffffffffffffffffffffff16146108d9576040517f08c379a00000000000000000000000000000000000000000000000000000000081526004016108d090612228565b60405180910390fd5b60003373ffffffffffffffffffffffffffffffffffffffff16476040516108ff906120df565b60006040518083038185875af1925050503d806000811461093c576040519150601f19603f3d011682016040523d82523d6000602084013e610941565b606091505b5050905080610985576040517f08c379a000000000000000000000000000000000000000000000000000000000815260040161097c906121c8565b60405180910390fd5b50565b61099061182b565b73ffffffffffffffffffffffffffffffffffffffff166109ae611071565b73ffffffffffffffffffffffffffffffffffffffff1614610a04576040517f08c379a00000000000000000000000000000000000000000000000000000000081526004016109fb90612228565b60405180910390fd5b610a0c611833565b565b6000600354905090565b600354341015610a5d576040517f08c379a0000000000000000000000000000000000000000000000000000000008152600401610a5490612268565b60405180910390fd5b8060008190506003815114610aa7576040517f08c379a0000000000000000000000000000000000000000000000000000000008152600401610a9e90612248565b60405180910390fd5b610aaf610f4d565b15610aef576040517f08c379a0000000000000000000000000000000000000000000000000000000008152600401610ae6906121e8565b60405180910390fd5b600073ffffffffffffffffffffffffffffffffffffffff16600484604051610b1791906120b1565b908152602001604051809103902060009054906101000a900473ffffffffffffffffffffffffffffffffffffffff1673ffffffffffffffffffffffffffffffffffffffff161415610b9d576040517f08c379a0000000000000000000000000000000000000000000000000000000008152600401610b9490612188565b60405180910390fd5b600060035434610bad9190612557565b90506040518060a0016040528060015481526020013373ffffffffffffffffffffffffffffffffffffffff16815260200185815260200160006001811115610c1e577f4e487b7100000000000000000000000000000000000000000000000000000000600052602160045260246000fd5b8152602001828152506006600060015481526020019081526020016000206000820151816000015560208201518160010160006101000a81548173ffffffffffffffffffffffffffffffffffffffff021916908373ffffffffffffffffffffffffffffffffffffffff1602179055506040820151816002019080519060200190610ca9929190611a3b565b5060608201518160030160006101000a81548160ff02191690836001811115610cfb577f4e487b7100000000000000000000000000000000000000000000000000000000600052602160045260246000fd5b021790555060808201518160040155905050600160056000600487604051610d2391906120b1565b908152602001604051809103902060009054906101000a900473ffffffffffffffffffffffffffffffffffffffff1673ffffffffffffffffffffffffffffffffffffffff1673ffffffffffffffffffffffffffffffffffffffff1681526020019081526020016000206000828254610d9b9190612501565b925050819055506001806000828254610db49190612501565b925050819055506000600485604051610dcd91906120b1565b908152602001604051809103902060009054906101000a900473ffffffffffffffffffffffffffffffffffffffff1673ffffffffffffffffffffffffffffffffffffffff1682604051610e1f906120df565b60006040518083038185875af1925050503d8060008114610e5c576040519150601f19603f3d011682016040523d82523d6000602084013e610e61565b606091505b5050905080610eb5577f8677b57b8bb2cc7ee300f9aebe042b891a119b9949d3974d15f1f72b4fb3744d60018054610e999190612557565b338785604051610eac94939291906123a5565b60405180910390a15b80610ef5576040517f08c379a0000000000000000000000000000000000000000000000000000000008152600401610eec906121c8565b60405180910390fd5b7f6c7e0a6ecda086f3db70bd1293b039eb3aca113808ff54c4001d52546e1c96cb60018054610f249190612557565b3387856000600354604051610f3e969594939291906123f1565b60405180910390a15050505050565b60008060149054906101000a900460ff16905090565b610f6b61182b565b73ffffffffffffffffffffffffffffffffffffffff16610f89611071565b73ffffffffffffffffffffffffffffffffffffffff1614610fdf576040517f08c379a0000000000000000000000000000000000000000000000000000000008152600401610fd690612228565b60405180910390fd5b610fe960006118d4565b565b610ff361182b565b73ffffffffffffffffffffffffffffffffffffffff16611011611071565b73ffffffffffffffffffffffffffffffffffffffff1614611067576040517f08c379a000000000000000000000000000000000000000000000000000000000815260040161105e90612228565b60405180910390fd5b61106f611998565b565b60008060009054906101000a900473ffffffffffffffffffffffffffffffffffffffff16905090565b60066020528060005260406000206000915090508060000154908060010160009054906101000a900473ffffffffffffffffffffffffffffffffffffffff16908060020180546110e99061264c565b80601f01602080910402602001604051908101604052809291908181526020018280546111159061264c565b80156111625780601f1061113757610100808354040283529160200191611162565b820191906000526020600020905b81548152906001019060200180831161114557829003601f168201915b5050505050908060030160009054906101000a900460ff16908060040154905085565b60035481565b61119361182b565b73ffffffffffffffffffffffffffffffffffffffff166111b1611071565b73ffffffffffffffffffffffffffffffffffffffff1614611207576040517f08c379a00000000000000000000000000000000000000000000000000000000081526004016111fe90612228565b60405180910390fd5b61120f610f4d565b1561124f576040517f08c379a0000000000000000000000000000000000000000000000000000000008152600401611246906121e8565b60405180910390fd5b8160008190506003815114611299576040517f08c379a000000000000000000000000000000000000000000000000000000000815260040161129090612248565b60405180910390fd5b836000600560006004846040516112b091906120b1565b908152602001604051809103902060009054906101000a900473ffffffffffffffffffffffffffffffffffffffff1673ffffffffffffffffffffffffffffffffffffffff1673ffffffffffffffffffffffffffffffffffffffff168152602001908152602001600020541461135a576040517f08c379a0000000000000000000000000000000000000000000000000000000008152600401611351906122a8565b60405180910390fd5b600060048660405161136c91906120b1565b908152602001604051809103902060009054906101000a900473ffffffffffffffffffffffffffffffffffffffff169050846004876040516113ae91906120b1565b908152602001604051809103902060006101000a81548173ffffffffffffffffffffffffffffffffffffffff021916908373ffffffffffffffffffffffffffffffffffffffff1602179055507f0f15edfba3e3ed3e9cbe4671b9e294e309914a0165e592062c5e456b83baa69586828760405161142d9392919061212a565b60405180910390a1505050505050565b6004818051602081018201805184825260208301602085012081835280955050505050506000915054906101000a900473ffffffffffffffffffffffffffffffffffffffff1681565b60056020528060005260406000206000915090505481565b600081600081905060038151146114ea576040517f08c379a00000000000000000000000000000000000000000000000000000000081526004016114e190612248565b60405180910390fd5b6004846040516114fa91906120b1565b908152602001604051809103902060009054906101000a900473ffffffffffffffffffffffffffffffffffffffff1692505050919050565b600080606060008060008660006006600083815260200190815260200160002060010160009054906101000a900473ffffffffffffffffffffffffffffffffffffffff169050600073ffffffffffffffffffffffffffffffffffffffff168173ffffffffffffffffffffffffffffffffffffffff1614156115e8576040517f08c379a00000000000000000000000000000000000000000000000000000000081526004016115df90612208565b60405180910390fd5b600660008a815260200190815260200160002060000154600660008b815260200190815260200160002060010160009054906101000a900473ffffffffffffffffffffffffffffffffffffffff16600660008c8152602001908152602001600020600201600660008d815260200190815260200160002060030160009054906101000a900460ff16600660008e8152602001908152602001600020600401546003548380546116969061264c565b80601f01602080910402602001604051908101604052809291908181526020018280546116c29061264c565b801561170f5780601f106116e45761010080835404028352916020019161170f565b820191906000526020600020905b8154815290600101906020018083116116f257829003601f168201915b50505050509350975097509750975097509750505091939550919395565b60015481565b61173b61182b565b73ffffffffffffffffffffffffffffffffffffffff16611759611071565b73ffffffffffffffffffffffffffffffffffffffff16146117af576040517f08c379a00000000000000000000000000000000000000000000000000000000081526004016117a690612228565b60405180910390fd5b600073ffffffffffffffffffffffffffffffffffffffff168173ffffffffffffffffffffffffffffffffffffffff16141561181f576040517f08c379a0000000000000000000000000000000000000000000000000000000008152600401611816906121a8565b60405180910390fd5b611828816118d4565b50565b600033905090565b61183b610f4d565b61187a576040517f08c379a000000000000000000000000000000000000000000000000000000000815260040161187190612168565b60405180910390fd5b60008060146101000a81548160ff0219169083151502179055507f5db9ee0a495bf2e6ff9c91a7834c1ba4fdd244a5e8aa4e537bd38aeae4b073aa6118bd61182b565b6040516118ca91906120f4565b60405180910390a1565b60008060009054906101000a900473ffffffffffffffffffffffffffffffffffffffff169050816000806101000a81548173ffffffffffffffffffffffffffffffffffffffff021916908373ffffffffffffffffffffffffffffffffffffffff1602179055508173ffffffffffffffffffffffffffffffffffffffff168173ffffffffffffffffffffffffffffffffffffffff167f8be0079c531659141344cd1fd0a4f28419497f9722a3daafe3b4186f6b6457e060405160405180910390a35050565b6119a0610f4d565b156119e0576040517f08c379a00000000000000000000000000000000000000000000000000000000081526004016119d7906121e8565b60405180910390fd5b6001600060146101000a81548160ff0219169083151502179055507f62e78cea01bee320cd4e420270b5ea74000d11b0c9f74754ebdbfc544b05a258611a2461182b565b604051611a3191906120f4565b60405180910390a1565b828054611a479061264c565b90600052602060002090601f016020900481019282611a695760008555611ab0565b82601f10611a8257805160ff1916838001178555611ab0565b82800160010185558215611ab0579182015b82811115611aaf578251825591602001919060010190611a94565b5b509050611abd9190611ac1565b5090565b5b80821115611ada576000816000905550600101611ac2565b5090565b6000611af1611aec8461248a565b612459565b905082815260208101848484011115611b0957600080fd5b611b1484828561260a565b509392505050565b600081359050611b2b8161275f565b92915050565b600082601f830112611b4257600080fd5b8135611b52848260208601611ade565b91505092915050565b600081359050611b6a81612776565b92915050565b600060208284031215611b8257600080fd5b6000611b9084828501611b1c565b91505092915050565b600060208284031215611bab57600080fd5b600082013567ffffffffffffffff811115611bc557600080fd5b611bd184828501611b31565b91505092915050565b60008060408385031215611bed57600080fd5b600083013567ffffffffffffffff811115611c0757600080fd5b611c1385828601611b31565b9250506020611c2485828601611b1c565b9150509250929050565b600060208284031215611c4057600080fd5b6000611c4e84828501611b5b565b91505092915050565b611c608161259d565b82525050565b611c6f8161258b565b82525050565b611c7e816125af565b82525050565b611c8d816125f8565b82525050565b6000611c9e826124cf565b611ca881856124e5565b9350611cb8818560208601612619565b611cc18161273a565b840191505092915050565b6000611cd7826124cf565b611ce181856124f6565b9350611cf1818560208601612619565b80840191505092915050565b60008154611d0a8161264c565b611d1481866124f6565b94506001821660008114611d2f5760018114611d4057611d73565b60ff19831686528186019350611d73565b611d49856124ba565b60005b83811015611d6b57815481890152600182019150602081019050611d4c565b838801955050505b50505092915050565b6000611d896014836124e5565b91507f5061757361626c653a206e6f74207061757365640000000000000000000000006000830152602082019050919050565b6000611dc9600f836124e5565b91507f496e76616c6964206164647265737300000000000000000000000000000000006000830152602082019050919050565b6000611e096026836124e5565b91507f4f776e61626c653a206e6577206f776e657220697320746865207a65726f206160008301527f64647265737300000000000000000000000000000000000000000000000000006020830152604082019050919050565b6000611e6f6014836124e5565b91507f4661696c656420746f2073656e642045746865720000000000000000000000006000830152602082019050919050565b6000611eaf6010836124e5565b91507f5061757361626c653a20706175736564000000000000000000000000000000006000830152602082019050919050565b6000611eef6018836124e5565b91507f5472616e7366657220646f6573206e6f742065786973742100000000000000006000830152602082019050919050565b6000611f2f6020836124e5565b91507f4f776e61626c653a2063616c6c6572206973206e6f7420746865206f776e65726000830152602082019050919050565b6000611f6f6015836124e5565b91507f496e76616c696420636f756e74727920636f64652100000000000000000000006000830152602082019050919050565b6000611faf6015836124e5565b91507f496e73756666696369656e7420616d6d6f756e742100000000000000000000006000830152602082019050919050565b6000611fef601e836124e5565b91507f5472616e7366657220697320616c726561647920636f6e6669726d65642100006000830152602082019050919050565b600061202f6000836124da565b9150600082019050919050565b60006120496036836124e5565b91507f546865726520617265207374696c6c20756e636f6e6669726d6564207472616e60008301527f73666572732061742074686973206164647265737321000000000000000000006020830152604082019050919050565b6120ab816125ee565b82525050565b60006120bd8284611ccc565b915081905092915050565b60006120d48284611cfd565b915081905092915050565b60006120ea82612022565b9150819050919050565b60006020820190506121096000830184611c66565b92915050565b60006020820190506121246000830184611c75565b92915050565b600060608201905081810360008301526121448186611c93565b90506121536020830185611c66565b6121606040830184611c66565b949350505050565b6000602082019050818103600083015261218181611d7c565b9050919050565b600060208201905081810360008301526121a181611dbc565b9050919050565b600060208201905081810360008301526121c181611dfc565b9050919050565b600060208201905081810360008301526121e181611e62565b9050919050565b6000602082019050818103600083015261220181611ea2565b9050919050565b6000602082019050818103600083015261222181611ee2565b9050919050565b6000602082019050818103600083015261224181611f22565b9050919050565b6000602082019050818103600083015261226181611f62565b9050919050565b6000602082019050818103600083015261228181611fa2565b9050919050565b600060208201905081810360008301526122a181611fe2565b9050919050565b600060208201905081810360008301526122c18161203c565b9050919050565b60006020820190506122dd60008301846120a2565b92915050565b600060a0820190506122f860008301886120a2565b6123056020830187611c57565b81810360408301526123178186611c93565b90506123266060830185611c84565b61233360808301846120a2565b9695505050505050565b600060c08201905061235260008301896120a2565b61235f6020830188611c66565b81810360408301526123718187611c93565b90506123806060830186611c84565b61238d60808301856120a2565b61239a60a08301846120a2565b979650505050505050565b60006080820190506123ba60008301876120a2565b6123c76020830186611c66565b81810360408301526123d98185611c93565b90506123e860608301846120a2565b95945050505050565b600060c08201905061240660008301896120a2565b6124136020830188611c66565b81810360408301526124258187611c93565b905061243460608301866120a2565b6124416080830185611c84565b61244e60a08301846120a2565b979650505050505050565b6000604051905081810181811067ffffffffffffffff821117156124805761247f61270b565b5b8060405250919050565b600067ffffffffffffffff8211156124a5576124a461270b565b5b601f19601f8301169050602081019050919050565b60008190508160005260206000209050919050565b600081519050919050565b600081905092915050565b600082825260208201905092915050565b600081905092915050565b600061250c826125ee565b9150612517836125ee565b9250827fffffffffffffffffffffffffffffffffffffffffffffffffffffffffffffffff0382111561254c5761254b61267e565b5b828201905092915050565b6000612562826125ee565b915061256d836125ee565b9250828210156125805761257f61267e565b5b828203905092915050565b6000612596826125ce565b9050919050565b60006125a8826125ce565b9050919050565b60008115159050919050565b60008190506125c98261274b565b919050565b600073ffffffffffffffffffffffffffffffffffffffff82169050919050565b6000819050919050565b6000612603826125bb565b9050919050565b82818337600083830152505050565b60005b8381101561263757808201518184015260208101905061261c565b83811115612646576000848401525b50505050565b6000600282049050600182168061266457607f821691505b60208210811415612678576126776126dc565b5b50919050565b7f4e487b7100000000000000000000000000000000000000000000000000000000600052601160045260246000fd5b7f4e487b7100000000000000000000000000000000000000000000000000000000600052602160045260246000fd5b7f4e487b7100000000000000000000000000000000000000000000000000000000600052602260045260246000fd5b7f4e487b7100000000000000000000000000000000000000000000000000000000600052604160045260246000fd5b6000601f19601f8301169050919050565b6002811061275c5761275b6126ad565b5b50565b6127688161258b565b811461277357600080fd5b50565b61277f816125ee565b811461278a57600080fd5b5056fea2646970667358221220fa247618945e730196b06bbb680b382bbaa4974087c389d220a73a53fda86c3264736f6c63430008000033",
  "immutableReferences": {},
  "source": "// SPDX-License-Identifier: MIT\npragma solidity ^0.8.0;\nimport \"@openzeppelin/contracts/access/Ownable.sol\";\nimport \"@openzeppelin/contracts/security/Pausable.sol\";\n\ncontract CryptoUnion is Ownable, Pausable {\n    //transfer id\n    uint256 public transferCount = 0;\n    uint256 public transferCount1 = 0;\n\n    //the initator needs to send > minValue for the transaction to go through\n    uint256 public minValue = 3e15;\n\n    //contry code (3 chars max) -> address mapping\n    mapping(string => address) public addresses;\n\n    //wallet address -> count of pending transfers mapping\n    mapping(address => uint256) public pendingTransfers;\n\n    // transfer id -> Transfer mapping\n    mapping(uint256 => Transfer) public transfers;\n\n    // enum State\n    // Sent - the money was sent to the desination country\n    // Confirmed - the initiator of the trasfer was sent a confirmation that the intended recepient\n    // has received the money (a manual step for now)\n    // If the send fails the initiator will be refued their payment minus the gas fees via revert\n    // State transitions:\n    // Sent -> Confirmed\n    enum Status {\n        Sent,\n        Confirmed\n    }\n\n    // struct Transfer\n    struct Transfer {\n        uint256 transferId;\n        address payable from;\n        string to; //country code of the recepient\n        Status status;\n        uint256 amount;\n    }\n\n    /*\n     * Events\n     */\n    // <LogForSale event: sku arg>\n    event LogCountryAddressUpdated(\n        string countryCode,\n        address oldWallet,\n        address newWallet\n    );\n\n    event LogTransferSent(\n        uint256 transferId,\n        address from,\n        string to,\n        uint256 amount,\n        Status status,\n        uint256 contractFee\n    );\n    event LogTransferFailed(\n        uint256 transferId,\n        address from,\n        string to,\n        uint256 amount\n    );\n    /*\n     * Modifiers\n     */\n\n    modifier validCountryCode(string memory countrycode) {\n        bytes memory tempEmptyStringTest = bytes(countrycode);\n        require(tempEmptyStringTest.length == 3, \"Invalid country code!\");\n        _;\n    }\n\n    // validate that the initaltor of the transfer paid a non-zero amount\n    modifier paidEnough() {\n        require(msg.value >= minValue, \"Insufficient ammount!\");\n        _;\n    }\n\n    // validate transfer status, expectedStatus == actualStatus\n    modifier checkStatus(Status status) {\n        require(status == Status.Sent, \"Transfer is already confirmed!\");\n        _;\n    }\n\n    // we cannot uodate an address if there are pending transfers tied to that address\n    modifier noPendingTransfers(string memory countryCode) {\n        require(\n            pendingTransfers[addresses[countryCode]] == 0,\n            \"There are still unconfirmed transfers at this address!\"\n        );\n        _;\n    }\n\n    modifier transferExists(uint256 _transferId) {\n        address from = transfers[_transferId].from;\n        require(from != address(0), \"Transfer does not exist!\");\n        _;\n    }\n\n    function adminSignIn() public view returns (bool) {\n        return msg.sender == owner();\n    }\n\n    function setAddress(string memory countryCode, address wallet)\n        public\n        onlyOwner\n        whenNotPaused\n        validCountryCode(countryCode)\n        noPendingTransfers(countryCode)\n    {\n        address oldWallet = addresses[countryCode];\n        addresses[countryCode] = wallet;\n        emit LogCountryAddressUpdated(countryCode, oldWallet, wallet);\n    }\n\n    function getAddress(string memory countryCode)\n        public\n        view\n        validCountryCode(countryCode)\n        returns (address)\n    {\n        return addresses[countryCode];\n    }\n\n    /*\n    function setMinValue(uint256 _minValue) public isOwner {\n        revert(\"Not implemented!\");\n    }\n    */\n    function getMinValue() public view returns (uint256) {\n        return minValue;\n    }\n\n    function getTransferCount() public view returns (uint256) {\n        return transferCount;\n    }\n\n    function sendEthToCountry(string memory countryCode)\n        public\n        payable\n        paidEnough\n        validCountryCode(countryCode)\n        whenNotPaused\n    {\n        // Here are the approximate steps:\n        // 1. Create a transfer - need to figure out how much the contract should charge for the service\n        if (addresses[countryCode] == address(0)) {\n            revert(\"Invalid address\");\n        }\n        uint256 amount = msg.value - minValue;\n        transfers[transferCount] = Transfer(\n            transferCount,\n            payable(msg.sender),\n            countryCode,\n            Status.Sent,\n            amount\n        );\n        pendingTransfers[addresses[countryCode]] += 1;\n        transferCount += 1;\n        // 2. Try to send money to addresses[countryCode]\n        (bool sent, ) = addresses[countryCode].call{value: amount}(\"\");\n        if (!sent) {\n            emit LogTransferFailed(\n                transferCount - 1,\n                msg.sender,\n                countryCode,\n                amount\n            );\n        }\n        // defending afainst https://swcregistry.io/docs/SWC-104\n        require(sent, \"Failed to send Ether\");\n        // 3. If success, change the status to Sent\n        emit LogTransferSent(\n            transferCount - 1,\n            msg.sender,\n            countryCode,\n            amount,\n            Status.Sent,\n            minValue\n        );\n    }\n\n    /*\n    function sendToCountry(string memory countryCode)\n        public\n        payable\n        paidEnough\n    {\n        // Similar steps to sendEthToCountry() but with USDT\n        revert(\"Not implemented!\");\n    }\n\n    function refund(address sender) public returns (bool) {\n        revert(\"Not implemented!\");\n    }\n    */\n\n    function getTransfer(uint256 _transferId)\n        public\n        view\n        transferExists(_transferId)\n        returns (\n            uint256,\n            address,\n            string memory,\n            Status,\n            uint256,\n            uint256\n        )\n    {\n        return (\n            transfers[_transferId].transferId,\n            transfers[_transferId].from,\n            transfers[_transferId].to,\n            transfers[_transferId].status,\n            transfers[_transferId].amount,\n            minValue\n        );\n    }\n\n    function confirmTransfer(uint256 _transferId)\n        public\n        onlyOwner\n        whenNotPaused\n        transferExists(_transferId)\n        checkStatus(transfers[_transferId].status)\n    {\n        transfers[_transferId].status = Status.Confirmed;\n        pendingTransfers[addresses[transfers[_transferId].to]] -= 1;\n    }\n\n    function withdraw() public onlyOwner {\n        (bool sent, ) = msg.sender.call{value: address(this).balance}(\"\");\n        require(sent, \"Failed to send Ether\");\n    }\n\n    function pause() public onlyOwner {\n        Pausable._pause();\n    }\n\n    function unpause() public onlyOwner {\n        Pausable._unpause();\n    }\n}\n",
  "sourcePath": "/Users/liubov/Desktop/blockchain-developer-bootcamp-final-project/contracts/CryptoUnion.sol",
  "compiler": {
    "name": "solc",
    "version": "0.8.0+commit.c7dfd78e.Emscripten.clang"
  },
  "schemaVersion": "3.4.3",
  "updatedAt": "2021-11-03T04:13:43.262Z",
  "devdoc": {
    "kind": "dev",
    "methods": {
      "owner()": {
        "details": "Returns the address of the current owner."
      },
      "paused()": {
        "details": "Returns true if the contract is paused, and false otherwise."
      },
      "renounceOwnership()": {
        "details": "Leaves the contract without owner. It will not be possible to call `onlyOwner` functions anymore. Can only be called by the current owner. NOTE: Renouncing ownership will leave the contract without an owner, thereby removing any functionality that is only available to the owner."
      },
      "transferOwnership(address)": {
        "details": "Transfers ownership of the contract to a new account (`newOwner`). Can only be called by the current owner."
      }
    },
    "version": 1
  },
  "userdoc": {
    "kind": "user",
    "methods": {},
    "version": 1
  }
}