{
  "contractName": "CryptoUnion",
  "abi": [
    {
      "anonymous": false,
      "inputs": [
        {
          "indexed": false,
          "internalType": "string",
          "name": "countryCode",
          "type": "string"
        },
        {
          "indexed": false,
          "internalType": "address",
          "name": "oldWallet",
          "type": "address"
        },
        {
          "indexed": false,
          "internalType": "address",
          "name": "newWallet",
          "type": "address"
        }
      ],
      "name": "LogCountryAddressUpdated",
      "type": "event"
    },
    {
      "constant": true,
      "inputs": [
        {
          "internalType": "string",
          "name": "",
          "type": "string"
        }
      ],
      "name": "addresses",
      "outputs": [
        {
          "internalType": "address",
          "name": "",
          "type": "address"
        }
      ],
      "payable": false,
      "stateMutability": "view",
      "type": "function"
    },
    {
      "constant": true,
      "inputs": [],
      "name": "minValue",
      "outputs": [
        {
          "internalType": "uint256",
          "name": "",
          "type": "uint256"
        }
      ],
      "payable": false,
      "stateMutability": "view",
      "type": "function"
    },
    {
      "constant": true,
      "inputs": [],
      "name": "owner",
      "outputs": [
        {
          "internalType": "address",
          "name": "",
          "type": "address"
        }
      ],
      "payable": false,
      "stateMutability": "view",
      "type": "function"
    },
    {
      "constant": true,
      "inputs": [
        {
          "internalType": "address",
          "name": "",
          "type": "address"
        }
      ],
      "name": "pendingTransfers",
      "outputs": [
        {
          "internalType": "uint256",
          "name": "",
          "type": "uint256"
        }
      ],
      "payable": false,
      "stateMutability": "view",
      "type": "function"
    },
    {
      "constant": true,
      "inputs": [],
      "name": "transferCount",
      "outputs": [
        {
          "internalType": "uint256",
          "name": "",
          "type": "uint256"
        }
      ],
      "payable": false,
      "stateMutability": "view",
      "type": "function"
    },
    {
      "constant": true,
      "inputs": [
        {
          "internalType": "uint256",
          "name": "",
          "type": "uint256"
        }
      ],
      "name": "transfers",
      "outputs": [
        {
          "internalType": "uint256",
          "name": "transferId",
          "type": "uint256"
        },
        {
          "internalType": "address payable",
          "name": "from",
          "type": "address"
        },
        {
          "internalType": "string",
          "name": "to",
          "type": "string"
        },
        {
          "internalType": "enum CryptoUnion.Status",
          "name": "status",
          "type": "uint8"
        },
        {
          "internalType": "uint256",
          "name": "amount",
          "type": "uint256"
        }
      ],
      "payable": false,
      "stateMutability": "view",
      "type": "function"
    },
    {
      "constant": true,
      "inputs": [],
      "name": "adminSignIn",
      "outputs": [
        {
          "internalType": "bool",
          "name": "",
          "type": "bool"
        }
      ],
      "payable": false,
      "stateMutability": "view",
      "type": "function"
    },
    {
      "constant": false,
      "inputs": [
        {
          "internalType": "string",
          "name": "countryCode",
          "type": "string"
        },
        {
          "internalType": "address",
          "name": "wallet",
          "type": "address"
        }
      ],
      "name": "setAddress",
      "outputs": [],
      "payable": false,
      "stateMutability": "nonpayable",
      "type": "function"
    },
    {
      "constant": true,
      "inputs": [
        {
          "internalType": "string",
          "name": "countryCode",
          "type": "string"
        }
      ],
      "name": "getAddress",
      "outputs": [
        {
          "internalType": "address",
          "name": "",
          "type": "address"
        }
      ],
      "payable": false,
      "stateMutability": "view",
      "type": "function"
    },
    {
      "constant": false,
      "inputs": [
        {
          "internalType": "uint256",
          "name": "_minValue",
          "type": "uint256"
        }
      ],
      "name": "setMinValue",
      "outputs": [],
      "payable": false,
      "stateMutability": "nonpayable",
      "type": "function"
    },
    {
      "constant": true,
      "inputs": [],
      "name": "getMinValue",
      "outputs": [
        {
          "internalType": "uint256",
          "name": "",
          "type": "uint256"
        }
      ],
      "payable": false,
      "stateMutability": "view",
      "type": "function"
    },
    {
      "constant": false,
      "inputs": [
        {
          "internalType": "string",
          "name": "countryCode",
          "type": "string"
        }
      ],
      "name": "sendEthToCountry",
      "outputs": [],
      "payable": true,
      "stateMutability": "payable",
      "type": "function"
    },
    {
      "constant": false,
      "inputs": [
        {
          "internalType": "address",
          "name": "sender",
          "type": "address"
        }
      ],
      "name": "refundEth",
      "outputs": [
        {
          "internalType": "bool",
          "name": "",
          "type": "bool"
        }
      ],
      "payable": false,
      "stateMutability": "nonpayable",
      "type": "function"
    },
    {
      "constant": false,
      "inputs": [
        {
          "internalType": "string",
          "name": "countryCode",
          "type": "string"
        }
      ],
      "name": "sendToCountry",
      "outputs": [],
      "payable": true,
      "stateMutability": "payable",
      "type": "function"
    },
    {
      "constant": false,
      "inputs": [
        {
          "internalType": "address",
          "name": "sender",
          "type": "address"
        }
      ],
      "name": "refund",
      "outputs": [
        {
          "internalType": "bool",
          "name": "",
          "type": "bool"
        }
      ],
      "payable": false,
      "stateMutability": "nonpayable",
      "type": "function"
    },
    {
      "constant": true,
      "inputs": [
        {
          "internalType": "uint256",
          "name": "_transferId",
          "type": "uint256"
        }
      ],
      "name": "getTransfer",
      "outputs": [
        {
          "internalType": "uint256",
          "name": "",
          "type": "uint256"
        },
        {
          "internalType": "address",
          "name": "",
          "type": "address"
        },
        {
          "internalType": "bytes4",
          "name": "",
          "type": "bytes4"
        },
        {
          "internalType": "uint256",
          "name": "",
          "type": "uint256"
        }
      ],
      "payable": false,
      "stateMutability": "view",
      "type": "function"
    },
    {
      "constant": false,
      "inputs": [
        {
          "internalType": "uint256",
          "name": "_transferId",
          "type": "uint256"
        }
      ],
      "name": "confirmTransfer",
      "outputs": [],
      "payable": false,
      "stateMutability": "nonpayable",
      "type": "function"
    }
  ],
  "bytecode": "0x6080604052336000806101000a81548173ffffffffffffffffffffffffffffffffffffffff021916908373ffffffffffffffffffffffffffffffffffffffff16021790555060006001556702c68af0bb14000060025534801561006157600080fd5b50611b72806100716000396000f3fe6080604052600436106100fe5760003560e01c80639b75329f11610095578063c16fe90711610064578063c16fe907146107f7578063d83edd70146108c5578063db91774c1461092e578063e3d33fc914610969578063fa89401a14610994576100fe565b80639b75329f146104c7578063bdfe7d4714610582578063be22dd651461068a578063bf40fac1146106ef576100fe565b80638da5cb5b116100d15780638da5cb5b146102535780639377d711146102aa578063963e63c7146103b45780639b2ea4bd146103df576100fe565b80631cce57aa146101035780632c48e7db146101325780634b30a6a11461016d5780634cee308a14610198575b600080fd5b34801561010f57600080fd5b506101186109fd565b604051808215151515815260200191505060405180910390f35b34801561013e57600080fd5b5061016b6004803603602081101561015557600080fd5b8101908080359060200190929190505050610a65565b005b34801561017957600080fd5b50610182610bbb565b6040518082815260200191505060405180910390f35b610251600480360360208110156101ae57600080fd5b81019080803590602001906401000000008111156101cb57600080fd5b8201836020820111156101dd57600080fd5b803590602001918460018302840111640100000000831117156101ff57600080fd5b91908080601f016020809104026020016040519081016040528093929190818152602001838380828437600081840152601f19601f820116905080830192505050505050509192919290505050610c2b565b005b34801561025f57600080fd5b5061026861110f565b604051808273ffffffffffffffffffffffffffffffffffffffff1673ffffffffffffffffffffffffffffffffffffffff16815260200191505060405180910390f35b3480156102b657600080fd5b506102e3600480360360208110156102cd57600080fd5b8101908080359060200190929190505050611134565b604051808681526020018573ffffffffffffffffffffffffffffffffffffffff1673ffffffffffffffffffffffffffffffffffffffff1681526020018060200184600381111561032f57fe5b60ff168152602001838152602001828103825285818151815260200191508051906020019080838360005b8381101561037557808201518184015260208101905061035a565b50505050905090810190601f1680156103a25780820380516001836020036101000a031916815260200191505b50965050505050505060405180910390f35b3480156103c057600080fd5b506103c961122f565b6040518082815260200191505060405180910390f35b3480156103eb57600080fd5b506104c56004803603604081101561040257600080fd5b810190808035906020019064010000000081111561041f57600080fd5b82018360208201111561043157600080fd5b8035906020019184600183028401116401000000008311171561045357600080fd5b91908080601f016020809104026020016040519081016040528093929190818152602001838380828437600081840152601f19601f820116905080830192505050505050509192919290803573ffffffffffffffffffffffffffffffffffffffff169060200190929190505050611235565b005b610580600480360360208110156104dd57600080fd5b81019080803590602001906401000000008111156104fa57600080fd5b82018360208201111561050c57600080fd5b8035906020019184600183028401116401000000008311171561052e57600080fd5b91908080601f016020809104026020016040519081016040528093929190818152602001838380828437600081840152601f19601f8201169050808301925050505050505091929192905050506115b5565b005b34801561058e57600080fd5b50610648600480360360208110156105a557600080fd5b81019080803590602001906401000000008111156105c257600080fd5b8201836020820111156105d457600080fd5b803590602001918460018302840111640100000000831117156105f657600080fd5b91908080601f016020809104026020016040519081016040528093929190818152602001838380828437600081840152601f19601f82011690508083019250505050505050919291929050505061169b565b604051808273ffffffffffffffffffffffffffffffffffffffff1673ffffffffffffffffffffffffffffffffffffffff16815260200191505060405180910390f35b34801561069657600080fd5b506106d9600480360360208110156106ad57600080fd5b81019080803573ffffffffffffffffffffffffffffffffffffffff1690602001909291905050506116e4565b6040518082815260200191505060405180910390f35b3480156106fb57600080fd5b506107b56004803603602081101561071257600080fd5b810190808035906020019064010000000081111561072f57600080fd5b82018360208201111561074157600080fd5b8035906020019184600183028401116401000000008311171561076357600080fd5b91908080601f016020809104026020016040519081016040528093929190818152602001838380828437600081840152601f19601f8201169050808301925050505050505091929192905050506116fc565b604051808273ffffffffffffffffffffffffffffffffffffffff1673ffffffffffffffffffffffffffffffffffffffff16815260200191505060405180910390f35b34801561080357600080fd5b506108306004803603602081101561081a57600080fd5b810190808035906020019092919050505061180e565b604051808581526020018473ffffffffffffffffffffffffffffffffffffffff1673ffffffffffffffffffffffffffffffffffffffff168152602001837bffffffffffffffffffffffffffffffffffffffffffffffffffffffff19167bffffffffffffffffffffffffffffffffffffffffffffffffffffffff1916815260200182815260200194505050505060405180910390f35b3480156108d157600080fd5b50610914600480360360208110156108e857600080fd5b81019080803573ffffffffffffffffffffffffffffffffffffffff169060200190929190505050611882565b604051808215151515815260200191505060405180910390f35b34801561093a57600080fd5b506109676004803603602081101561095157600080fd5b81019080803590602001909291905050506118f2565b005b34801561097557600080fd5b5061097e611a22565b6040518082815260200191505060405180910390f35b3480156109a057600080fd5b506109e3600480360360208110156109b757600080fd5b81019080803573ffffffffffffffffffffffffffffffffffffffff169060200190929190505050611a28565b604051808215151515815260200191505060405180910390f35b60008060009054906101000a900473ffffffffffffffffffffffffffffffffffffffff1673ffffffffffffffffffffffffffffffffffffffff163373ffffffffffffffffffffffffffffffffffffffff161415610a5d5760019050610a62565b600090505b90565b6000809054906101000a900473ffffffffffffffffffffffffffffffffffffffff1673ffffffffffffffffffffffffffffffffffffffff163373ffffffffffffffffffffffffffffffffffffffff1614610b27576040517f08c379a000000000000000000000000000000000000000000000000000000000815260040180806020018281038252600f8152602001807f4f776e657220726571756972656421000000000000000000000000000000000081525060200191505060405180910390fd5b60016005600083815260200190815260200160002060030160009054906101000a900460ff166040517f08c379a00000000000000000000000000000000000000000000000000000000081526004018080602001828103825260108152602001807f4e6f7420696d706c656d656e746564210000000000000000000000000000000081525060200191505060405180910390fd5b60006040517f08c379a00000000000000000000000000000000000000000000000000000000081526004018080602001828103825260108152602001807f4e6f7420696d706c656d656e746564210000000000000000000000000000000081525060200191505060405180910390fd5b600254341015610ca3576040517f08c379a00000000000000000000000000000000000000000000000000000000081526004018080602001828103825260158152602001807f496e73756666696369656e7420616d6d6f756e7421000000000000000000000081525060200191505060405180910390fd5b8060608190506003815114610d20576040517f08c379a00000000000000000000000000000000000000000000000000000000081526004018080602001828103825260158152602001807f496e76616c696420636f756e74727920636f646521000000000000000000000081525060200191505060405180910390fd5b600073ffffffffffffffffffffffffffffffffffffffff166003846040518082805190602001908083835b60208310610d6e5780518252602082019150602081019050602083039250610d4b565b6001836020036101000a038019825116818451168082178552505050505050905001915050908152602001604051809103902060009054906101000a900473ffffffffffffffffffffffffffffffffffffffff1673ffffffffffffffffffffffffffffffffffffffff161415610e4c576040517f08c379a000000000000000000000000000000000000000000000000000000000815260040180806020018281038252600f8152602001807f496e76616c69642061646472657373000000000000000000000000000000000081525060200191505060405180910390fd5b6000600254340390506040518060a0016040528060015481526020013373ffffffffffffffffffffffffffffffffffffffff16815260200185815260200160006003811115610e9757fe5b8152602001828152506005600060015481526020019081526020016000206000820151816000015560208201518160010160006101000a81548173ffffffffffffffffffffffffffffffffffffffff021916908373ffffffffffffffffffffffffffffffffffffffff1602179055506040820151816002019080519060200190610f22929190611a98565b5060608201518160030160006101000a81548160ff02191690836003811115610f4757fe5b02179055506080820151816004015590505060006003856040518082805190602001908083835b60208310610f915780518252602082019150602081019050602083039250610f6e565b6001836020036101000a038019825116818451168082178552505050505050905001915050908152602001604051809103902060009054906101000a900473ffffffffffffffffffffffffffffffffffffffff1673ffffffffffffffffffffffffffffffffffffffff168260405180600001905060006040518083038185875af1925050503d8060008114611042576040519150601f19603f3d011682016040523d82523d6000602084013e611047565b606091505b50509050806110be576040517f08c379a00000000000000000000000000000000000000000000000000000000081526004018080602001828103825260148152602001807f4661696c656420746f2073656e6420457468657200000000000000000000000081525060200191505060405180910390fd5b600160056000600154815260200190815260200160002060030160006101000a81548160ff021916908360038111156110f357fe5b0217905550600180600082825401925050819055505050505050565b6000809054906101000a900473ffffffffffffffffffffffffffffffffffffffff1681565b60056020528060005260406000206000915090508060000154908060010160009054906101000a900473ffffffffffffffffffffffffffffffffffffffff1690806002018054600181600116156101000203166002900480601f01602080910402602001604051908101604052809291908181526020018280546001816001161561010002031660029004801561120c5780601f106111e15761010080835404028352916020019161120c565b820191906000526020600020905b8154815290600101906020018083116111ef57829003601f168201915b5050505050908060030160009054906101000a900460ff16908060040154905085565b60025481565b6000809054906101000a900473ffffffffffffffffffffffffffffffffffffffff1673ffffffffffffffffffffffffffffffffffffffff163373ffffffffffffffffffffffffffffffffffffffff16146112f7576040517f08c379a000000000000000000000000000000000000000000000000000000000815260040180806020018281038252600f8152602001807f4f776e657220726571756972656421000000000000000000000000000000000081525060200191505060405180910390fd5b8160608190506003815114611374576040517f08c379a00000000000000000000000000000000000000000000000000000000081526004018080602001828103825260158152602001807f496e76616c696420636f756e74727920636f646521000000000000000000000081525060200191505060405180910390fd5b60006003856040518082805190602001908083835b602083106113ac5780518252602082019150602081019050602083039250611389565b6001836020036101000a038019825116818451168082178552505050505050905001915050908152602001604051809103902060009054906101000a900473ffffffffffffffffffffffffffffffffffffffff169050836003866040518082805190602001908083835b602083106114395780518252602082019150602081019050602083039250611416565b6001836020036101000a038019825116818451168082178552505050505050905001915050908152602001604051809103902060006101000a81548173ffffffffffffffffffffffffffffffffffffffff021916908373ffffffffffffffffffffffffffffffffffffffff1602179055507f0f15edfba3e3ed3e9cbe4671b9e294e309914a0165e592062c5e456b83baa69585828660405180806020018473ffffffffffffffffffffffffffffffffffffffff1673ffffffffffffffffffffffffffffffffffffffff1681526020018373ffffffffffffffffffffffffffffffffffffffff1673ffffffffffffffffffffffffffffffffffffffff168152602001828103825285818151815260200191508051906020019080838360005b83811015611572578082015181840152602081019050611557565b50505050905090810190601f16801561159f5780820380516001836020036101000a031916815260200191505b5094505050505060405180910390a15050505050565b60025434101561162d576040517f08c379a00000000000000000000000000000000000000000000000000000000081526004018080602001828103825260158152602001807f496e73756666696369656e7420616d6d6f756e7421000000000000000000000081525060200191505060405180910390fd5b6040517f08c379a00000000000000000000000000000000000000000000000000000000081526004018080602001828103825260108152602001807f4e6f7420696d706c656d656e746564210000000000000000000000000000000081525060200191505060405180910390fd5b6003818051602081018201805184825260208301602085012081835280955050505050506000915054906101000a900473ffffffffffffffffffffffffffffffffffffffff1681565b60046020528060005260406000206000915090505481565b6000816060819050600381511461177b576040517f08c379a00000000000000000000000000000000000000000000000000000000081526004018080602001828103825260158152602001807f496e76616c696420636f756e74727920636f646521000000000000000000000081525060200191505060405180910390fd5b6003846040518082805190602001908083835b602083106117b1578051825260208201915060208101905060208303925061178e565b6001836020036101000a038019825116818451168082178552505050505050905001915050908152602001604051809103902060009054906101000a900473ffffffffffffffffffffffffffffffffffffffff1692505050919050565b6000806000806040517f08c379a00000000000000000000000000000000000000000000000000000000081526004018080602001828103825260108152602001807f4e6f7420696d706c656d656e746564210000000000000000000000000000000081525060200191505060405180910390fd5b60006040517f08c379a00000000000000000000000000000000000000000000000000000000081526004018080602001828103825260108152602001807f4e6f7420696d706c656d656e746564210000000000000000000000000000000081525060200191505060405180910390fd5b6000809054906101000a900473ffffffffffffffffffffffffffffffffffffffff1673ffffffffffffffffffffffffffffffffffffffff163373ffffffffffffffffffffffffffffffffffffffff16146119b4576040517f08c379a000000000000000000000000000000000000000000000000000000000815260040180806020018281038252600f8152602001807f4f776e657220726571756972656421000000000000000000000000000000000081525060200191505060405180910390fd5b6040517f08c379a00000000000000000000000000000000000000000000000000000000081526004018080602001828103825260108152602001807f4e6f7420696d706c656d656e746564210000000000000000000000000000000081525060200191505060405180910390fd5b60015481565b60006040517f08c379a00000000000000000000000000000000000000000000000000000000081526004018080602001828103825260108152602001807f4e6f7420696d706c656d656e746564210000000000000000000000000000000081525060200191505060405180910390fd5b828054600181600116156101000203166002900490600052602060002090601f016020900481019282601f10611ad957805160ff1916838001178555611b07565b82800160010185558215611b07579182015b82811115611b06578251825591602001919060010190611aeb565b5b509050611b149190611b18565b5090565b611b3a91905b80821115611b36576000816000905550600101611b1e565b5090565b9056fea265627a7a723158206c6c8eb4d1080aa063fd1ac41b556473fd0c981756201c47ab13d451661fa5c564736f6c63430005100032",
  "source": "// SPDX-License-Identifier: MIT\npragma solidity >=0.4.21 <0.7.0;\n\ncontract CryptoUnion {\n    // <owner>\n    address public owner = msg.sender;\n\n    //transfer id\n    uint256 public transferCount = 0;\n\n    //the initator needs to send > minValue for the transaction to go through\n    uint256 public minValue = 2e17;\n\n    //contry code (3 chars max) -> address mapping\n    mapping(string => address) public addresses;\n\n    //wallet address -> count of pending transfers mapping\n    mapping(address => uint256) public pendingTransfers;\n\n    // transfer id -> Transfer mapping\n    mapping(uint256 => Transfer) public transfers;\n\n    // enum State\n    // Initiated - user initiated the trasfer\n    // Sent - the money was sent to the desination country\n    // Failed - the money was not sent to the destination country, because of some error\n    // Confirmed - the initiator of the trasfer was sent a confirmation that the intended recepient\n    // has received the money\n    // Refunded - the initiator of the trasfer was refunded their payment minus the gas fees\n    // State transitions:\n    //     Initalized\n    //     /        \\\n    //   Sent     Refunded\n    //    |\n    // Confirmed\n    enum Status {\n        Initiated,\n        Sent,\n        Confirmed,\n        Refunded\n    }\n\n    // struct Transfer\n    struct Transfer {\n        uint256 transferId;\n        address payable from;\n        string to; //country code of the recepient\n        Status status;\n        uint256 amount;\n    }\n\n    /*\n     * Events\n     */\n    // <LogForSale event: sku arg>\n    event LogCountryAddressUpdated(\n        string countryCode,\n        address oldWallet,\n        address newWallet\n    );\n\n    /*\n     * Modifiers\n     */\n    modifier isOwner() {\n        require(msg.sender == owner, \"Owner required!\");\n        _;\n    }\n\n    modifier validCountryCode(string memory countrycode) {\n        bytes memory tempEmptyStringTest = bytes(countrycode);\n        require(tempEmptyStringTest.length == 3, \"Invalid country code!\");\n        _;\n    }\n\n    // validate that the initaltor of the transfer paid a non-zero amount\n    modifier paidEnough() {\n        require(msg.value >= minValue, \"Insufficient ammount!\");\n        _;\n    }\n\n    // validate transfer status, expectedStatus == actualStatus\n    modifier checkStatus(Status expectedStatus, Status actualStatus) {\n        revert(\"Not implemented!\");\n        _;\n    }\n\n    // we cannot uodate an address if there are pending transfers tied to that address\n    modifier noPendingTransfers(bytes4 countryCode) {\n        revert(\"Not implemented!\");\n        _;\n    }\n\n    function adminSignIn() public view returns (bool) {\n        if (msg.sender == owner) {\n            return true;\n        }\n        return false;\n    }\n\n    function setAddress(string memory countryCode, address wallet)\n        public\n        isOwner\n        validCountryCode(countryCode)\n    {\n        address oldWallet = addresses[countryCode];\n        addresses[countryCode] = wallet;\n        emit LogCountryAddressUpdated(countryCode, oldWallet, wallet);\n    }\n\n    function getAddress(string memory countryCode)\n        public\n        view\n        validCountryCode(countryCode)\n        returns (address)\n    {\n        return addresses[countryCode];\n    }\n\n    function setMinValue(uint256 _minValue) public isOwner {\n        revert(\"Not implemented!\");\n    }\n\n    function getMinValue() public view returns (uint256) {\n        revert(\"Not implemented!\");\n    }\n\n    function sendEthToCountry(string memory countryCode)\n        public\n        payable\n        paidEnough\n        validCountryCode(countryCode)\n    {\n        // Here are the approximate steps:\n        // 1. Create a transfer - need to figure out how much the contract should charge for the service\n        if (addresses[countryCode] == address(0)) {\n            revert(\"Invalid address\");\n            return;\n        }\n        uint256 amount = msg.value - minValue;\n        transfers[transferCount] = Transfer(\n            transferCount,\n            msg.sender,\n            countryCode,\n            Status.Initiated,\n            amount\n        );\n        // 2. Try to send money to addresses[countryCode]\n        (bool sent, ) = addresses[countryCode].call.value(amount)(\"\");\n        require(sent, \"Failed to send Ether\");\n        // 3. If success, change the status to Sent\n        transfers[transferCount].status = Status.Sent;\n        transferCount += 1;\n        // 4. If fail, refund the money to the sender (minus the contract fees) and change the status to Refunded\n        //revert(\"Not implemented!\");\n    }\n\n    function refundEth(address sender) public returns (bool) {\n        revert(\"Not implemented!\");\n    }\n\n    function sendToCountry(string memory countryCode)\n        public\n        payable\n        paidEnough\n    {\n        // Similar steps to sendEthToCountry() but with USDT\n        revert(\"Not implemented!\");\n    }\n\n    function refund(address sender) public returns (bool) {\n        revert(\"Not implemented!\");\n    }\n\n    function getTransfer(uint256 _transferId)\n        public\n        view\n        returns (\n            uint256,\n            address,\n            bytes4,\n            uint256\n        )\n    {\n        revert(\"Not implemented!\");\n    }\n\n    function confirmTransfer(uint256 _transferId)\n        public\n        isOwner\n        checkStatus(Status.Sent, transfers[_transferId].status)\n    {\n        revert(\"Not implemented!\");\n    }\n}\n",
  "sourcePath": "/Users/liubov/Desktop/blockchain-developer-bootcamp-final-project/contracts/CryptoUnion.sol",
  "compiler": {
    "name": "solc",
    "version": "0.5.16+commit.9c3226ce.Emscripten.clang"
  },
  "schemaVersion": "3.4.3",
  "updatedAt": "2021-10-07T05:26:40.834Z",
  "networkType": "ethereum",
  "devdoc": {
    "methods": {}
  },
  "userdoc": {
    "methods": {}
  }
}